{
  "_format": "hh-sol-artifact-1",
  "contractName": "EasyBet",
  "sourceName": "contracts/EasyBet.sol",
  "abi": [
    {
      "inputs": [],
      "stateMutability": "nonpayable",
      "type": "constructor"
    },
    {
      "inputs": [
        {
          "internalType": "uint256",
          "name": "",
          "type": "uint256"
        }
      ],
      "name": "GameRoundsPool",
      "outputs": [
        {
          "internalType": "uint256",
          "name": "id",
          "type": "uint256"
        },
        {
          "internalType": "string",
          "name": "name",
          "type": "string"
        },
        {
          "internalType": "string",
          "name": "description",
          "type": "string"
        },
        {
          "internalType": "address",
          "name": "winner",
          "type": "address"
        },
        {
          "internalType": "uint256",
          "name": "startTime",
          "type": "uint256"
        },
        {
          "internalType": "uint256",
          "name": "endTime",
          "type": "uint256"
        },
        {
          "internalType": "uint256",
          "name": "amountperticket",
          "type": "uint256"
        },
        {
          "internalType": "uint256",
          "name": "totalAmount",
          "type": "uint256"
        },
        {
          "internalType": "enum EasyBet.ActivityStatus",
          "name": "status",
          "type": "uint8"
        }
      ],
      "stateMutability": "view",
      "type": "function"
    },
    {
      "inputs": [
        {
          "internalType": "uint256",
          "name": "tokenId",
          "type": "uint256"
        }
      ],
      "name": "buyticket",
      "outputs": [],
      "stateMutability": "nonpayable",
      "type": "function"
    },
    {
      "inputs": [
        {
          "internalType": "string",
          "name": "name",
          "type": "string"
        },
        {
          "internalType": "string",
          "name": "description",
          "type": "string"
        },
        {
          "internalType": "string[]",
          "name": "choices",
          "type": "string[]"
        },
        {
          "internalType": "uint256",
          "name": "startTime",
          "type": "uint256"
        },
        {
          "internalType": "uint256",
          "name": "endTime",
          "type": "uint256"
        },
        {
          "internalType": "uint256",
          "name": "amountperticket",
          "type": "uint256"
        },
        {
          "internalType": "uint256",
          "name": "totalAmount",
          "type": "uint256"
        }
      ],
      "name": "createGameRound",
      "outputs": [],
      "stateMutability": "nonpayable",
      "type": "function"
    },
    {
      "inputs": [
        {
          "internalType": "string",
          "name": "choice",
          "type": "string"
        },
        {
          "internalType": "uint256",
          "name": "activityId",
          "type": "uint256"
        }
      ],
      "name": "draw",
      "outputs": [],
      "stateMutability": "nonpayable",
      "type": "function"
    },
    {
      "inputs": [],
      "name": "gameRoundCount",
      "outputs": [
        {
          "internalType": "uint256",
          "name": "",
          "type": "uint256"
        }
      ],
      "stateMutability": "view",
      "type": "function"
    },
    {
      "inputs": [
        {
          "internalType": "uint256",
          "name": "activityId",
          "type": "uint256"
        }
      ],
      "name": "getActivityPlayerCount",
      "outputs": [
        {
          "internalType": "uint256",
          "name": "",
          "type": "uint256"
        }
      ],
      "stateMutability": "view",
      "type": "function"
    },
    {
      "inputs": [],
      "name": "getAddress",
      "outputs": [
        {
          "internalType": "address",
          "name": "",
          "type": "address"
        }
      ],
      "stateMutability": "view",
      "type": "function"
    },
    {
      "inputs": [],
      "name": "getAllGameRounds",
      "outputs": [
        {
          "components": [
            {
              "internalType": "uint256",
              "name": "id",
              "type": "uint256"
            },
            {
              "internalType": "string",
              "name": "name",
              "type": "string"
            },
            {
              "internalType": "string[]",
              "name": "choices",
              "type": "string[]"
            },
            {
              "internalType": "uint256",
              "name": "startTime",
              "type": "uint256"
            },
            {
              "internalType": "string",
              "name": "description",
              "type": "string"
            },
            {
              "internalType": "uint256",
              "name": "amountperticket",
              "type": "uint256"
            },
            {
              "internalType": "uint256",
              "name": "endTime",
              "type": "uint256"
            },
            {
              "internalType": "uint256",
              "name": "totalAmount",
              "type": "uint256"
            },
            {
              "internalType": "enum EasyBet.ActivityStatus",
              "name": "status",
              "type": "uint8"
            }
          ],
          "internalType": "struct EasyBet.GameRoundBack[]",
          "name": "",
          "type": "tuple[]"
        }
      ],
      "stateMutability": "view",
      "type": "function"
    },
    {
      "inputs": [
        {
          "internalType": "uint256",
          "name": "activityId",
          "type": "uint256"
        }
      ],
      "name": "getPlayerNumber",
      "outputs": [
        {
          "internalType": "uint256",
          "name": "",
          "type": "uint256"
        }
      ],
      "stateMutability": "view",
      "type": "function"
    },
    {
      "inputs": [
        {
          "internalType": "address",
          "name": "player",
          "type": "address"
        }
      ],
      "name": "getPlayerTickets",
      "outputs": [
        {
          "internalType": "uint256[]",
          "name": "",
          "type": "uint256[]"
        }
      ],
      "stateMutability": "view",
      "type": "function"
    },
    {
      "inputs": [
        {
          "internalType": "address",
          "name": "user",
          "type": "address"
        },
        {
          "internalType": "uint256",
          "name": "activityId",
          "type": "uint256"
        }
      ],
      "name": "getUserActivityTickets",
      "outputs": [
        {
          "components": [
            {
              "internalType": "uint256",
              "name": "tokenId",
              "type": "uint256"
            },
            {
              "internalType": "uint256",
              "name": "activityId",
              "type": "uint256"
            },
            {
              "internalType": "string",
              "name": "choice",
              "type": "string"
            },
            {
              "internalType": "uint256",
              "name": "timestamp",
              "type": "uint256"
            },
            {
              "internalType": "enum Tickets.TicketStatus",
              "name": "status",
              "type": "uint8"
            }
          ],
          "internalType": "struct Tickets.UserTicketDetails[]",
          "name": "",
          "type": "tuple[]"
        }
      ],
      "stateMutability": "view",
      "type": "function"
    },
    {
      "inputs": [
        {
          "internalType": "address",
          "name": "user",
          "type": "address"
        }
      ],
      "name": "getUserCompleteInfo",
      "outputs": [
        {
          "internalType": "uint256",
          "name": "pointsBalance",
          "type": "uint256"
        },
        {
          "components": [
            {
              "internalType": "uint256",
              "name": "totalTickets",
              "type": "uint256"
            },
            {
              "components": [
                {
                  "internalType": "uint256",
                  "name": "tokenId",
                  "type": "uint256"
                },
                {
                  "internalType": "uint256",
                  "name": "activityId",
                  "type": "uint256"
                },
                {
                  "internalType": "string",
                  "name": "choice",
                  "type": "string"
                },
                {
                  "internalType": "uint256",
                  "name": "timestamp",
                  "type": "uint256"
                },
                {
                  "internalType": "enum Tickets.TicketStatus",
                  "name": "status",
                  "type": "uint8"
                }
              ],
              "internalType": "struct Tickets.UserTicketDetails[]",
              "name": "ticketDetails",
              "type": "tuple[]"
            },
            {
              "components": [
                {
                  "internalType": "uint256",
                  "name": "tokenId",
                  "type": "uint256"
                },
                {
                  "internalType": "uint256",
                  "name": "value",
                  "type": "uint256"
                }
              ],
              "internalType": "struct Tickets.TicketSaleInfo[]",
              "name": "ticketSaleDetails",
              "type": "tuple[]"
            },
            {
              "internalType": "uint256[]",
              "name": "ticketIds",
              "type": "uint256[]"
            }
          ],
          "internalType": "struct Tickets.UserCompleteInfo",
          "name": "ticketsInfo",
          "type": "tuple"
        }
      ],
      "stateMutability": "view",
      "type": "function"
    },
    {
      "inputs": [
        {
          "internalType": "uint256",
          "name": "activityId",
          "type": "uint256"
        },
        {
          "internalType": "address",
          "name": "player",
          "type": "address"
        }
      ],
      "name": "hasPlayerJoined",
      "outputs": [
        {
          "internalType": "bool",
          "name": "",
          "type": "bool"
        }
      ],
      "stateMutability": "view",
      "type": "function"
    },
    {
      "inputs": [],
      "name": "manager",
      "outputs": [
        {
          "internalType": "address",
          "name": "",
          "type": "address"
        }
      ],
      "stateMutability": "view",
      "type": "function"
    },
    {
      "inputs": [
        {
          "internalType": "string",
          "name": "choice",
          "type": "string"
        },
        {
          "internalType": "uint256",
          "name": "activityId",
          "type": "uint256"
        },
        {
          "internalType": "uint256",
          "name": "number",
          "type": "uint256"
        }
      ],
      "name": "play",
      "outputs": [],
      "stateMutability": "nonpayable",
      "type": "function"
    },
    {
      "inputs": [],
      "name": "pointsManager",
      "outputs": [
        {
          "internalType": "contract Points",
          "name": "",
          "type": "address"
        }
      ],
      "stateMutability": "view",
      "type": "function"
    },
    {
      "inputs": [
        {
          "internalType": "uint256",
          "name": "activityId",
          "type": "uint256"
        }
      ],
      "name": "refund",
      "outputs": [],
      "stateMutability": "nonpayable",
      "type": "function"
    },
    {
      "inputs": [],
      "name": "ticketsManager",
      "outputs": [
        {
          "internalType": "contract Tickets",
          "name": "",
          "type": "address"
        }
      ],
      "stateMutability": "view",
      "type": "function"
    },
    {
      "inputs": [
        {
          "internalType": "uint256",
          "name": "activityId",
          "type": "uint256"
        }
      ],
      "name": "updateActivityStatus",
      "outputs": [],
      "stateMutability": "nonpayable",
      "type": "function"
    },
    {
      "inputs": [],
      "name": "updateAllActivityStatuses",
      "outputs": [],
      "stateMutability": "nonpayable",
      "type": "function"
    }
  ],
  "bytecode": "0x60806040523480156200001157600080fd5b50336000806101000a81548173ffffffffffffffffffffffffffffffffffffffff021916908373ffffffffffffffffffffffffffffffffffffffff160217905550604051620000609062000130565b604051809103906000f0801580156200007d573d6000803e3d6000fd5b50600160006101000a81548173ffffffffffffffffffffffffffffffffffffffff021916908373ffffffffffffffffffffffffffffffffffffffff160217905550604051620000cc906200013e565b604051809103906000f080158015620000e9573d6000803e3d6000fd5b50600260006101000a81548173ffffffffffffffffffffffffffffffffffffffff021916908373ffffffffffffffffffffffffffffffffffffffff1602179055506200014c565b61183e806200469983390190565b6159938062005ed783390190565b61453d806200015c6000396000f3fe608060405234801561001057600080fd5b506004361061012c5760003560e01c806362369683116100ad578063a942f2a211610071578063a942f2a21461035d578063b11375361461038e578063cf14a3b314610398578063e6ebe8a0146103b6578063f655ddf8146103d25761012c565b806362369683146102915780636f24b271146102c1578063904b5f03146102f15780639c915a141461030f5780639fce6fb51461032d5761012c565b8063278ecde1116100f4578063278ecde11461020157806338cc48311461021d57806339c824371461023b5780633b081d8b14610257578063481c6a75146102735761012c565b806303590ca31461013157806307286e2f1461014d5780631439bd2d1461017d578063234131981461019957806326cee0f9146101c9575b600080fd5b61014b6004803603810190610146919061246c565b6103f0565b005b61016760048036038101906101629190612526565b610875565b6040516101749190612581565b60405180910390f35b6101976004803603810190610192919061259c565b6108e0565b005b6101b360048036038101906101ae91906125c9565b610b51565b6040516101c091906126b4565b60405180910390f35b6101e360048036038101906101de919061259c565b610cf9565b6040516101f8999897969594939291906127ea565b60405180910390f35b61021b6004803603810190610216919061259c565b610e84565b005b6102256111df565b6040516102329190612885565b60405180910390f35b6102556004803603810190610250919061259c565b6111e7565b005b610271600480360381019061026c91906128a0565b611302565b005b61027b61185b565b6040516102889190612885565b60405180910390f35b6102ab60048036038101906102a6919061290f565b61187f565b6040516102b89190612b19565b60405180910390f35b6102db60048036038101906102d6919061259c565b61192c565b6040516102e89190612b3b565b60405180910390f35b6102f961194f565b6040516103069190612bb5565b60405180910390f35b610317611975565b6040516103249190612e36565b60405180910390f35b6103476004803603810190610342919061259c565b611c91565b6040516103549190612b3b565b60405180910390f35b610377600480360381019061037291906125c9565b611cb4565b60405161038592919061309c565b60405180910390f35b610396611e04565b005b6103a0611e30565b6040516103ad9190612b3b565b60405180910390f35b6103d060048036038101906103cb91906131b2565b611e36565b005b6103da6120af565b6040516103e791906132c9565b60405180910390f35b60008054906101000a900473ffffffffffffffffffffffffffffffffffffffff1673ffffffffffffffffffffffffffffffffffffffff163373ffffffffffffffffffffffffffffffffffffffff161461044857600080fd5b60006003600083815260200190815260200160002090506002600381111561047357610472612773565b5b81600b0160009054906101000a900460ff16600381111561049757610496612773565b5b036104d7576040517f08c379a00000000000000000000000000000000000000000000000000000000081526004016104ce90613330565b60405180910390fd5b6000600260009054906101000a900473ffffffffffffffffffffffffffffffffffffffff1673ffffffffffffffffffffffffffffffffffffffff166382036a8284866040518363ffffffff1660e01b8152600401610536929190613350565b600060405180830381865afa158015610553573d6000803e3d6000fd5b505050506040513d6000823e3d601f19601f8201168201806040525081019061057c91906135d6565b9050600081604001510361064b57600260009054906101000a900473ffffffffffffffffffffffffffffffffffffffff1673ffffffffffffffffffffffffffffffffffffffff16630536897e846040518263ffffffff1660e01b81526004016105e59190612b3b565b600060405180830381600087803b1580156105ff57600080fd5b505af1158015610613573d6000803e3d6000fd5b50505050600382600b0160006101000a81548160ff0219169083600381111561063f5761063e612773565b5b02179055505050610871565b6000816040015183600a0154610661919061367d565b905060005b8260000151518110156107b2576000600160009054906101000a900473ffffffffffffffffffffffffffffffffffffffff1673ffffffffffffffffffffffffffffffffffffffff1663a9059cbb856000015184815181106106ca576106c96136ae565b5b602002602001015185876020015186815181106106ea576106e96136ae565b5b60200260200101516106fc91906136dd565b6040518363ffffffff1660e01b815260040161071992919061371f565b6020604051808303816000875af1158015610738573d6000803e3d6000fd5b505050506040513d601f19601f8201168201806040525081019061075c9190613774565b90508061079e576040517f08c379a0000000000000000000000000000000000000000000000000000000008152600401610795906137ed565b60405180910390fd5b5080806107aa9061380d565b915050610666565b50600260009054906101000a900473ffffffffffffffffffffffffffffffffffffffff1673ffffffffffffffffffffffffffffffffffffffff16630536897e856040518263ffffffff1660e01b815260040161080e9190612b3b565b600060405180830381600087803b15801561082857600080fd5b505af115801561083c573d6000803e3d6000fd5b50505050600383600b0160006101000a81548160ff0219169083600381111561086857610867612773565b5b02179055505050505b5050565b60006003600084815260200190815260200160002060040160008373ffffffffffffffffffffffffffffffffffffffff1673ffffffffffffffffffffffffffffffffffffffff16815260200190815260200160002060009054906101000a900460ff16905092915050565b6000600260009054906101000a900473ffffffffffffffffffffffffffffffffffffffff1673ffffffffffffffffffffffffffffffffffffffff1663f06fc961836040518263ffffffff1660e01b815260040161093d9190612b3b565b602060405180830381865afa15801561095a573d6000803e3d6000fd5b505050506040513d601f19601f8201168201806040525081019061097e9190613855565b9050600160009054906101000a900473ffffffffffffffffffffffffffffffffffffffff1673ffffffffffffffffffffffffffffffffffffffff166323b872dd33600260009054906101000a900473ffffffffffffffffffffffffffffffffffffffff1673ffffffffffffffffffffffffffffffffffffffff16636352211e866040518263ffffffff1660e01b8152600401610a1a9190612b3b565b602060405180830381865afa158015610a37573d6000803e3d6000fd5b505050506040513d601f19601f82011682018060405250810190610a5b9190613882565b846040518463ffffffff1660e01b8152600401610a7a939291906138af565b6020604051808303816000875af1158015610a99573d6000803e3d6000fd5b505050506040513d601f19601f82011682018060405250810190610abd9190613774565b50600260009054906101000a900473ffffffffffffffffffffffffffffffffffffffff1673ffffffffffffffffffffffffffffffffffffffff1663efb2d51333846040518363ffffffff1660e01b8152600401610b1b92919061371f565b600060405180830381600087803b158015610b3557600080fd5b505af1158015610b49573d6000803e3d6000fd5b505050505050565b60606000805b600454811015610be9576003600082815260200190815260200160002060040160008573ffffffffffffffffffffffffffffffffffffffff1673ffffffffffffffffffffffffffffffffffffffff16815260200190815260200160002060009054906101000a900460ff1615610bd6578180610bd29061380d565b9250505b8080610be19061380d565b915050610b57565b5060008167ffffffffffffffff811115610c0657610c0561230b565b5b604051908082528060200260200182016040528015610c345781602001602082028036833780820191505090505b5090506000805b600454811015610ced576003600082815260200190815260200160002060040160008773ffffffffffffffffffffffffffffffffffffffff1673ffffffffffffffffffffffffffffffffffffffff16815260200190815260200160002060009054906101000a900460ff1615610cda5780838381518110610cbf57610cbe6136ae565b5b6020026020010181815250508180610cd69061380d565b9250505b8080610ce59061380d565b915050610c3b565b50819350505050919050565b6003602052806000526040600020600091509050806000015490806002018054610d2290613915565b80601f0160208091040260200160405190810160405280929190818152602001828054610d4e90613915565b8015610d9b5780601f10610d7057610100808354040283529160200191610d9b565b820191906000526020600020905b815481529060010190602001808311610d7e57829003601f168201915b505050505090806003018054610db090613915565b80601f0160208091040260200160405190810160405280929190818152602001828054610ddc90613915565b8015610e295780601f10610dfe57610100808354040283529160200191610e29565b820191906000526020600020905b815481529060010190602001808311610e0c57829003601f168201915b5050505050908060050160009054906101000a900473ffffffffffffffffffffffffffffffffffffffff169080600701549080600801549080600901549080600a01549080600b0160009054906101000a900460ff16905089565b60008054906101000a900473ffffffffffffffffffffffffffffffffffffffff1673ffffffffffffffffffffffffffffffffffffffff163373ffffffffffffffffffffffffffffffffffffffff1614610edc57600080fd5b600060036000838152602001908152602001600020905060026003811115610f0757610f06612773565b5b81600b0160009054906101000a900460ff166003811115610f2b57610f2a612773565b5b03610f6b576040517f08c379a0000000000000000000000000000000000000000000000000000000008152600401610f6290613330565b60405180910390fd5b6000600260009054906101000a900473ffffffffffffffffffffffffffffffffffffffff1673ffffffffffffffffffffffffffffffffffffffff1663d42c29bd846040518263ffffffff1660e01b8152600401610fc89190612b3b565b600060405180830381865afa158015610fe5573d6000803e3d6000fd5b505050506040513d6000823e3d601f19601f8201168201806040525081019061100e91906139ce565b905060005b81600001515181101561111f57600160009054906101000a900473ffffffffffffffffffffffffffffffffffffffff1673ffffffffffffffffffffffffffffffffffffffff1663a9059cbb83600001518381518110611075576110746136ae565b5b6020026020010151856009015485602001518581518110611099576110986136ae565b5b60200260200101516110ab91906136dd565b6040518363ffffffff1660e01b81526004016110c892919061371f565b6020604051808303816000875af11580156110e7573d6000803e3d6000fd5b505050506040513d601f19601f8201168201806040525081019061110b9190613774565b5080806111179061380d565b915050611013565b50600382600b0160006101000a81548160ff0219169083600381111561114857611147612773565b5b0217905550600260009054906101000a900473ffffffffffffffffffffffffffffffffffffffff1673ffffffffffffffffffffffffffffffffffffffff16630536897e846040518263ffffffff1660e01b81526004016111a89190612b3b565b600060405180830381600087803b1580156111c257600080fd5b505af11580156111d6573d6000803e3d6000fd5b50505050505050565b600030905090565b600454811061122b576040517f08c379a000000000000000000000000000000000000000000000000000000000815260040161122290613a63565b60405180910390fd5b6000600360008381526020019081526020016000209050806007015442101561128057600081600b0160006101000a81548160ff0219169083600381111561127657611275612773565b5b02179055506112fe565b80600701544210158015611298575080600801544211155b156112cf57600181600b0160006101000a81548160ff021916908360038111156112c5576112c4612773565b5b02179055506112fd565b600281600b0160006101000a81548160ff021916908360038111156112f7576112f6612773565b5b02179055505b5b5050565b60006003600084815260200190815260200160002090506001600381111561132d5761132c612773565b5b81600b0160009054906101000a900460ff16600381111561135157611350612773565b5b14611391576040517f08c379a000000000000000000000000000000000000000000000000000000000815260040161138890613acf565b60405180910390fd5b61146e8482600601805480602002602001604051908101604052809291908181526020016000905b828210156114655783829060005260206000200180546113d890613915565b80601f016020809104026020016040519081016040528092919081815260200182805461140490613915565b80156114515780601f1061142657610100808354040283529160200191611451565b820191906000526020600020905b81548152906001019060200180831161143457829003601f168201915b5050505050815260200190600101906113b9565b505050506120d5565b6114ad576040517f08c379a00000000000000000000000000000000000000000000000000000000081526004016114a490613b3b565b60405180910390fd5b8060090154600160009054906101000a900473ffffffffffffffffffffffffffffffffffffffff1673ffffffffffffffffffffffffffffffffffffffff166370a08231336040518263ffffffff1660e01b815260040161150d9190612885565b602060405180830381865afa15801561152a573d6000803e3d6000fd5b505050506040513d601f19601f8201168201806040525081019061154e9190613855565b101561158f576040517f08c379a000000000000000000000000000000000000000000000000000000000815260040161158690613ba7565b60405180910390fd5b6000600160009054906101000a900473ffffffffffffffffffffffffffffffffffffffff1673ffffffffffffffffffffffffffffffffffffffff166323b872dd33308686600901546115e191906136dd565b6040518463ffffffff1660e01b81526004016115ff939291906138af565b6020604051808303816000875af115801561161e573d6000803e3d6000fd5b505050506040513d601f19601f820116820180604052508101906116429190613774565b905080611684576040517f08c379a000000000000000000000000000000000000000000000000000000000815260040161167b90613c13565b60405180910390fd5b8160040160003373ffffffffffffffffffffffffffffffffffffffff1673ffffffffffffffffffffffffffffffffffffffff16815260200190815260200160002060009054906101000a900460ff166117975781600101339080600181540180825580915050600190039060005260206000200160009091909190916101000a81548173ffffffffffffffffffffffffffffffffffffffff021916908373ffffffffffffffffffffffffffffffffffffffff16021790555060018260040160003373ffffffffffffffffffffffffffffffffffffffff1673ffffffffffffffffffffffffffffffffffffffff16815260200190815260200160002060006101000a81548160ff0219169083151502179055505b600260009054906101000a900473ffffffffffffffffffffffffffffffffffffffff1673ffffffffffffffffffffffffffffffffffffffff1663cc68c083338688876040518563ffffffff1660e01b81526004016117f89493929190613c33565b600060405180830381600087803b15801561181257600080fd5b505af1158015611826573d6000803e3d6000fd5b5050505082826009015461183a91906136dd565b82600a01600082825461184d9190613c7f565b925050819055505050505050565b60008054906101000a900473ffffffffffffffffffffffffffffffffffffffff1681565b6060600260009054906101000a900473ffffffffffffffffffffffffffffffffffffffff1673ffffffffffffffffffffffffffffffffffffffff16633a6afbf684846040518363ffffffff1660e01b81526004016118de92919061371f565b600060405180830381865afa1580156118fb573d6000803e3d6000fd5b505050506040513d6000823e3d601f19601f820116820180604052508101906119249190613ed1565b905092915050565b600060036000838152602001908152602001600020600101805490509050919050565b600160009054906101000a900473ffffffffffffffffffffffffffffffffffffffff1681565b6060600060045467ffffffffffffffff8111156119955761199461230b565b5b6040519080825280602002602001820160405280156119ce57816020015b6119bb61217c565b8152602001906001900390816119b35790505b50905060005b600454811015611c8957600060036000838152602001908152602001600020905060405180610120016040528082600001548152602001826002018054611a1a90613915565b80601f0160208091040260200160405190810160405280929190818152602001828054611a4690613915565b8015611a935780601f10611a6857610100808354040283529160200191611a93565b820191906000526020600020905b815481529060010190602001808311611a7657829003601f168201915b5050505050815260200182600601805480602002602001604051908101604052809291908181526020016000905b82821015611b6d578382906000526020600020018054611ae090613915565b80601f0160208091040260200160405190810160405280929190818152602001828054611b0c90613915565b8015611b595780601f10611b2e57610100808354040283529160200191611b59565b820191906000526020600020905b815481529060010190602001808311611b3c57829003601f168201915b505050505081526020019060010190611ac1565b50505050815260200182600701548152602001826003018054611b8f90613915565b80601f0160208091040260200160405190810160405280929190818152602001828054611bbb90613915565b8015611c085780601f10611bdd57610100808354040283529160200191611c08565b820191906000526020600020905b815481529060010190602001808311611beb57829003601f168201915b50505050508152602001826009015481526020018260080154815260200182600a0154815260200182600b0160009054906101000a900460ff166003811115611c5457611c53612773565b5b815250838381518110611c6a57611c696136ae565b5b6020026020010181905250508080611c819061380d565b9150506119d4565b508091505090565b600060036000838152602001908152602001600020600101805490509050919050565b6000611cbe6121da565b600160009054906101000a900473ffffffffffffffffffffffffffffffffffffffff1673ffffffffffffffffffffffffffffffffffffffff166370a08231846040518263ffffffff1660e01b8152600401611d199190612885565b602060405180830381865afa158015611d36573d6000803e3d6000fd5b505050506040513d601f19601f82011682018060405250810190611d5a9190613855565b9150600260009054906101000a900473ffffffffffffffffffffffffffffffffffffffff1673ffffffffffffffffffffffffffffffffffffffff16630484a22f846040518263ffffffff1660e01b8152600401611db79190612885565b600060405180830381865afa158015611dd4573d6000803e3d6000fd5b505050506040513d6000823e3d601f19601f82011682018060405250810190611dfd91906140f9565b9050915091565b60005b600454811015611e2d57611e1a816111e7565b8080611e259061380d565b915050611e07565b50565b60045481565b60008054906101000a900473ffffffffffffffffffffffffffffffffffffffff1673ffffffffffffffffffffffffffffffffffffffff163373ffffffffffffffffffffffffffffffffffffffff1614611e8e57600080fd5b828410611ed0576040517f08c379a0000000000000000000000000000000000000000000000000000000008152600401611ec7906141b4565b60405180910390fd5b428311611f12576040517f08c379a0000000000000000000000000000000000000000000000000000000008152600401611f0990614220565b60405180910390fd5b60006003600060045481526020019081526020016000209050600454816000018190555087816002019081611f4791906143e2565b5086816003019081611f5991906143e2565b5085816006019080519060200190611f72929190612202565b508481600701819055508381600801819055508281600901819055508181600a0181905550844210611fd057600181600b0160006101000a81548160ff02191690836003811115611fc657611fc5612773565b5b0217905550611ffe565b600081600b0160006101000a81548160ff02191690836003811115611ff857611ff7612773565b5b02179055505b600160009054906101000a900473ffffffffffffffffffffffffffffffffffffffff1673ffffffffffffffffffffffffffffffffffffffff166340c10f1930846040518363ffffffff1660e01b815260040161205b92919061371f565b600060405180830381600087803b15801561207557600080fd5b505af1158015612089573d6000803e3d6000fd5b50505050600460008154809291906120a09061380d565b91905055505050505050505050565b600260009054906101000a900473ffffffffffffffffffffffffffffffffffffffff1681565b600080600090505b825181101561217057836040516020016120f791906144f0565b604051602081830303815290604052805190602001208382815181106121205761211f6136ae565b5b602002602001015160405160200161213891906144f0565b604051602081830303815290604052805190602001200361215d576001915050612176565b80806121689061380d565b9150506120dd565b50600090505b92915050565b6040518061012001604052806000815260200160608152602001606081526020016000815260200160608152602001600081526020016000815260200160008152602001600060038111156121d4576121d3612773565b5b81525090565b6040518060800160405280600081526020016060815260200160608152602001606081525090565b82805482825590600052602060002090810192821561224a579160200282015b8281111561224957825182908161223991906143e2565b5091602001919060010190612222565b5b509050612257919061225b565b5090565b5b8082111561227b5760008181612272919061227f565b5060010161225c565b5090565b50805461228b90613915565b6000825580601f1061229d57506122bc565b601f0160209004906000526020600020908101906122bb91906122bf565b5b50565b5b808211156122d85760008160009055506001016122c0565b5090565b6000604051905090565b600080fd5b600080fd5b600080fd5b600080fd5b6000601f19601f8301169050919050565b7f4e487b7100000000000000000000000000000000000000000000000000000000600052604160045260246000fd5b612343826122fa565b810181811067ffffffffffffffff821117156123625761236161230b565b5b80604052505050565b60006123756122dc565b9050612381828261233a565b919050565b600067ffffffffffffffff8211156123a1576123a061230b565b5b6123aa826122fa565b9050602081019050919050565b82818337600083830152505050565b60006123d96123d484612386565b61236b565b9050828152602081018484840111156123f5576123f46122f5565b5b6124008482856123b7565b509392505050565b600082601f83011261241d5761241c6122f0565b5b813561242d8482602086016123c6565b91505092915050565b6000819050919050565b61244981612436565b811461245457600080fd5b50565b60008135905061246681612440565b92915050565b60008060408385031215612483576124826122e6565b5b600083013567ffffffffffffffff8111156124a1576124a06122eb565b5b6124ad85828601612408565b92505060206124be85828601612457565b9150509250929050565b600073ffffffffffffffffffffffffffffffffffffffff82169050919050565b60006124f3826124c8565b9050919050565b612503816124e8565b811461250e57600080fd5b50565b600081359050612520816124fa565b92915050565b6000806040838503121561253d5761253c6122e6565b5b600061254b85828601612457565b925050602061255c85828601612511565b9150509250929050565b60008115159050919050565b61257b81612566565b82525050565b60006020820190506125966000830184612572565b92915050565b6000602082840312156125b2576125b16122e6565b5b60006125c084828501612457565b91505092915050565b6000602082840312156125df576125de6122e6565b5b60006125ed84828501612511565b91505092915050565b600081519050919050565b600082825260208201905092915050565b6000819050602082019050919050565b61262b81612436565b82525050565b600061263d8383612622565b60208301905092915050565b6000602082019050919050565b6000612661826125f6565b61266b8185612601565b935061267683612612565b8060005b838110156126a757815161268e8882612631565b975061269983612649565b92505060018101905061267a565b5085935050505092915050565b600060208201905081810360008301526126ce8184612656565b905092915050565b6126df81612436565b82525050565b600081519050919050565b600082825260208201905092915050565b60005b8381101561271f578082015181840152602081019050612704565b60008484015250505050565b6000612736826126e5565b61274081856126f0565b9350612750818560208601612701565b612759816122fa565b840191505092915050565b61276d816124e8565b82525050565b7f4e487b7100000000000000000000000000000000000000000000000000000000600052602160045260246000fd5b600481106127b3576127b2612773565b5b50565b60008190506127c4826127a2565b919050565b60006127d4826127b6565b9050919050565b6127e4816127c9565b82525050565b600061012082019050612800600083018c6126d6565b8181036020830152612812818b61272b565b90508181036040830152612826818a61272b565b90506128356060830189612764565b61284260808301886126d6565b61284f60a08301876126d6565b61285c60c08301866126d6565b61286960e08301856126d6565b6128776101008301846127db565b9a9950505050505050505050565b600060208201905061289a6000830184612764565b92915050565b6000806000606084860312156128b9576128b86122e6565b5b600084013567ffffffffffffffff8111156128d7576128d66122eb565b5b6128e386828701612408565b93505060206128f486828701612457565b925050604061290586828701612457565b9150509250925092565b60008060408385031215612926576129256122e6565b5b600061293485828601612511565b925050602061294585828601612457565b9150509250929050565b600081519050919050565b600082825260208201905092915050565b6000819050602082019050919050565b600082825260208201905092915050565b6000612997826126e5565b6129a1818561297b565b93506129b1818560208601612701565b6129ba816122fa565b840191505092915050565b600381106129d6576129d5612773565b5b50565b60008190506129e7826129c5565b919050565b60006129f7826129d9565b9050919050565b612a07816129ec565b82525050565b600060a083016000830151612a256000860182612622565b506020830151612a386020860182612622565b5060408301518482036040860152612a50828261298c565b9150506060830151612a656060860182612622565b506080830151612a7860808601826129fe565b508091505092915050565b6000612a8f8383612a0d565b905092915050565b6000602082019050919050565b6000612aaf8261294f565b612ab9818561295a565b935083602082028501612acb8561296b565b8060005b85811015612b075784840389528151612ae88582612a83565b9450612af383612a97565b925060208a01995050600181019050612acf565b50829750879550505050505092915050565b60006020820190508181036000830152612b338184612aa4565b905092915050565b6000602082019050612b5060008301846126d6565b92915050565b6000819050919050565b6000612b7b612b76612b71846124c8565b612b56565b6124c8565b9050919050565b6000612b8d82612b60565b9050919050565b6000612b9f82612b82565b9050919050565b612baf81612b94565b82525050565b6000602082019050612bca6000830184612ba6565b92915050565b600081519050919050565b600082825260208201905092915050565b6000819050602082019050919050565b600081519050919050565b600082825260208201905092915050565b6000819050602082019050919050565b6000612c34838361298c565b905092915050565b6000602082019050919050565b6000612c5482612bfc565b612c5e8185612c07565b935083602082028501612c7085612c18565b8060005b85811015612cac5784840389528151612c8d8582612c28565b9450612c9883612c3c565b925060208a01995050600181019050612c74565b50829750879550505050505092915050565b612cc7816127c9565b82525050565b600061012083016000830151612ce66000860182612622565b5060208301518482036020860152612cfe828261298c565b91505060408301518482036040860152612d188282612c49565b9150506060830151612d2d6060860182612622565b5060808301518482036080860152612d45828261298c565b91505060a0830151612d5a60a0860182612622565b5060c0830151612d6d60c0860182612622565b5060e0830151612d8060e0860182612622565b50610100830151612d95610100860182612cbe565b508091505092915050565b6000612dac8383612ccd565b905092915050565b6000602082019050919050565b6000612dcc82612bd0565b612dd68185612bdb565b935083602082028501612de885612bec565b8060005b85811015612e245784840389528151612e058582612da0565b9450612e1083612db4565b925060208a01995050600181019050612dec565b50829750879550505050505092915050565b60006020820190508181036000830152612e508184612dc1565b905092915050565b600082825260208201905092915050565b6000612e748261294f565b612e7e8185612e58565b935083602082028501612e908561296b565b8060005b85811015612ecc5784840389528151612ead8582612a83565b9450612eb883612a97565b925060208a01995050600181019050612e94565b50829750879550505050505092915050565b600081519050919050565b600082825260208201905092915050565b6000819050602082019050919050565b604082016000820151612f206000850182612622565b506020820151612f336020850182612622565b50505050565b6000612f458383612f0a565b60408301905092915050565b6000602082019050919050565b6000612f6982612ede565b612f738185612ee9565b9350612f7e83612efa565b8060005b83811015612faf578151612f968882612f39565b9750612fa183612f51565b925050600181019050612f82565b5085935050505092915050565b600082825260208201905092915050565b6000612fd8826125f6565b612fe28185612fbc565b9350612fed83612612565b8060005b8381101561301e5781516130058882612631565b975061301083612649565b925050600181019050612ff1565b5085935050505092915050565b60006080830160008301516130436000860182612622565b506020830151848203602086015261305b8282612e69565b915050604083015184820360408601526130758282612f5e565b9150506060830151848203606086015261308f8282612fcd565b9150508091505092915050565b60006040820190506130b160008301856126d6565b81810360208301526130c3818461302b565b90509392505050565b600067ffffffffffffffff8211156130e7576130e661230b565b5b602082029050602081019050919050565b600080fd5b600061311061310b846130cc565b61236b565b90508083825260208201905060208402830185811115613133576131326130f8565b5b835b8181101561317a57803567ffffffffffffffff811115613158576131576122f0565b5b8086016131658982612408565b85526020850194505050602081019050613135565b5050509392505050565b600082601f830112613199576131986122f0565b5b81356131a98482602086016130fd565b91505092915050565b600080600080600080600060e0888a0312156131d1576131d06122e6565b5b600088013567ffffffffffffffff8111156131ef576131ee6122eb565b5b6131fb8a828b01612408565b975050602088013567ffffffffffffffff81111561321c5761321b6122eb565b5b6132288a828b01612408565b965050604088013567ffffffffffffffff811115613249576132486122eb565b5b6132558a828b01613184565b95505060606132668a828b01612457565b94505060806132778a828b01612457565b93505060a06132888a828b01612457565b92505060c06132998a828b01612457565b91505092959891949750929550565b60006132b382612b82565b9050919050565b6132c3816132a8565b82525050565b60006020820190506132de60008301846132ba565b92915050565b7f41637469766974792068617320616c726561647920656e646564000000000000600082015250565b600061331a601a836126f0565b9150613325826132e4565b602082019050919050565b600060208201905081810360008301526133498161330d565b9050919050565b600060408201905061336560008301856126d6565b8181036020830152613377818461272b565b90509392505050565b600080fd5b600080fd5b600067ffffffffffffffff8211156133a5576133a461230b565b5b602082029050602081019050919050565b6000815190506133c5816124fa565b92915050565b60006133de6133d98461338a565b61236b565b90508083825260208201905060208402830185811115613401576134006130f8565b5b835b8181101561342a578061341688826133b6565b845260208401935050602081019050613403565b5050509392505050565b600082601f830112613449576134486122f0565b5b81516134598482602086016133cb565b91505092915050565b600067ffffffffffffffff82111561347d5761347c61230b565b5b602082029050602081019050919050565b60008151905061349d81612440565b92915050565b60006134b66134b184613462565b61236b565b905080838252602082019050602084028301858111156134d9576134d86130f8565b5b835b8181101561350257806134ee888261348e565b8452602084019350506020810190506134db565b5050509392505050565b600082601f830112613521576135206122f0565b5b81516135318482602086016134a3565b91505092915050565b6000606082840312156135505761354f613380565b5b61355a606061236b565b9050600082015167ffffffffffffffff81111561357a57613579613385565b5b61358684828501613434565b600083015250602082015167ffffffffffffffff8111156135aa576135a9613385565b5b6135b68482850161350c565b60208301525060406135ca8482850161348e565b60408301525092915050565b6000602082840312156135ec576135eb6122e6565b5b600082015167ffffffffffffffff81111561360a576136096122eb565b5b6136168482850161353a565b91505092915050565b7f4e487b7100000000000000000000000000000000000000000000000000000000600052601260045260246000fd5b7f4e487b7100000000000000000000000000000000000000000000000000000000600052601160045260246000fd5b600061368882612436565b915061369383612436565b9250826136a3576136a261361f565b5b828204905092915050565b7f4e487b7100000000000000000000000000000000000000000000000000000000600052603260045260246000fd5b60006136e882612436565b91506136f383612436565b925082820261370181612436565b915082820484148315176137185761371761364e565b5b5092915050565b60006040820190506137346000830185612764565b61374160208301846126d6565b9392505050565b61375181612566565b811461375c57600080fd5b50565b60008151905061376e81613748565b92915050565b60006020828403121561378a576137896122e6565b5b60006137988482850161375f565b91505092915050565b7f5472616e73666572206661696c65640000000000000000000000000000000000600082015250565b60006137d7600f836126f0565b91506137e2826137a1565b602082019050919050565b60006020820190508181036000830152613806816137ca565b9050919050565b600061381882612436565b91507fffffffffffffffffffffffffffffffffffffffffffffffffffffffffffffffff820361384a5761384961364e565b5b600182019050919050565b60006020828403121561386b5761386a6122e6565b5b60006138798482850161348e565b91505092915050565b600060208284031215613898576138976122e6565b5b60006138a6848285016133b6565b91505092915050565b60006060820190506138c46000830186612764565b6138d16020830185612764565b6138de60408301846126d6565b949350505050565b7f4e487b7100000000000000000000000000000000000000000000000000000000600052602260045260246000fd5b6000600282049050600182168061392d57607f821691505b6020821081036139405761393f6138e6565b5b50919050565b60006040828403121561395c5761395b613380565b5b613966604061236b565b9050600082015167ffffffffffffffff81111561398657613985613385565b5b61399284828501613434565b600083015250602082015167ffffffffffffffff8111156139b6576139b5613385565b5b6139c28482850161350c565b60208301525092915050565b6000602082840312156139e4576139e36122e6565b5b600082015167ffffffffffffffff811115613a0257613a016122eb565b5b613a0e84828501613946565b91505092915050565b7f496e76616c696420616374697669747920494400000000000000000000000000600082015250565b6000613a4d6013836126f0565b9150613a5882613a17565b602082019050919050565b60006020820190508181036000830152613a7c81613a40565b9050919050565b7f416374697669747920686173206e6f7420737461727465642079657400000000600082015250565b6000613ab9601c836126f0565b9150613ac482613a83565b602082019050919050565b60006020820190508181036000830152613ae881613aac565b9050919050565b7f496e76616c69642063686f696365000000000000000000000000000000000000600082015250565b6000613b25600e836126f0565b9150613b3082613aef565b602082019050919050565b60006020820190508181036000830152613b5481613b18565b9050919050565b7f4e6f7420656e6f75676820706f696e7473000000000000000000000000000000600082015250565b6000613b916011836126f0565b9150613b9c82613b5b565b602082019050919050565b60006020820190508181036000830152613bc081613b84565b9050919050565b7f5472616e7366657246726f6d206661696c656400000000000000000000000000600082015250565b6000613bfd6013836126f0565b9150613c0882613bc7565b602082019050919050565b60006020820190508181036000830152613c2c81613bf0565b9050919050565b6000608082019050613c486000830187612764565b613c5560208301866126d6565b8181036040830152613c67818561272b565b9050613c7660608301846126d6565b95945050505050565b6000613c8a82612436565b9150613c9583612436565b9250828201905080821115613cad57613cac61364e565b5b92915050565b600067ffffffffffffffff821115613cce57613ccd61230b565b5b602082029050602081019050919050565b6000613cf2613ced84612386565b61236b565b905082815260208101848484011115613d0e57613d0d6122f5565b5b613d19848285612701565b509392505050565b600082601f830112613d3657613d356122f0565b5b8151613d46848260208601613cdf565b91505092915050565b60038110613d5c57600080fd5b50565b600081519050613d6e81613d4f565b92915050565b600060a08284031215613d8a57613d89613380565b5b613d9460a061236b565b90506000613da48482850161348e565b6000830152506020613db88482850161348e565b602083015250604082015167ffffffffffffffff811115613ddc57613ddb613385565b5b613de884828501613d21565b6040830152506060613dfc8482850161348e565b6060830152506080613e1084828501613d5f565b60808301525092915050565b6000613e2f613e2a84613cb3565b61236b565b90508083825260208201905060208402830185811115613e5257613e516130f8565b5b835b81811015613e9957805167ffffffffffffffff811115613e7757613e766122f0565b5b808601613e848982613d74565b85526020850194505050602081019050613e54565b5050509392505050565b600082601f830112613eb857613eb76122f0565b5b8151613ec8848260208601613e1c565b91505092915050565b600060208284031215613ee757613ee66122e6565b5b600082015167ffffffffffffffff811115613f0557613f046122eb565b5b613f1184828501613ea3565b91505092915050565b600067ffffffffffffffff821115613f3557613f3461230b565b5b602082029050602081019050919050565b600060408284031215613f5c57613f5b613380565b5b613f66604061236b565b90506000613f768482850161348e565b6000830152506020613f8a8482850161348e565b60208301525092915050565b6000613fa9613fa484613f1a565b61236b565b90508083825260208201905060408402830185811115613fcc57613fcb6130f8565b5b835b81811015613ff55780613fe18882613f46565b845260208401935050604081019050613fce565b5050509392505050565b600082601f830112614014576140136122f0565b5b8151614024848260208601613f96565b91505092915050565b60006080828403121561404357614042613380565b5b61404d608061236b565b9050600061405d8482850161348e565b600083015250602082015167ffffffffffffffff81111561408157614080613385565b5b61408d84828501613ea3565b602083015250604082015167ffffffffffffffff8111156140b1576140b0613385565b5b6140bd84828501613fff565b604083015250606082015167ffffffffffffffff8111156140e1576140e0613385565b5b6140ed8482850161350c565b60608301525092915050565b60006020828403121561410f5761410e6122e6565b5b600082015167ffffffffffffffff81111561412d5761412c6122eb565b5b6141398482850161402d565b91505092915050565b7f53746172742074696d65206d757374206265206265666f726520656e6420746960008201527f6d65000000000000000000000000000000000000000000000000000000000000602082015250565b600061419e6022836126f0565b91506141a982614142565b604082019050919050565b600060208201905081810360008301526141cd81614191565b9050919050565b7f456e642074696d65206d75737420626520696e20746865206675747572650000600082015250565b600061420a601e836126f0565b9150614215826141d4565b602082019050919050565b60006020820190508181036000830152614239816141fd565b9050919050565b60008190508160005260206000209050919050565b60006020601f8301049050919050565b600082821b905092915050565b6000600883026142a27fffffffffffffffffffffffffffffffffffffffffffffffffffffffffffffffff82614265565b6142ac8683614265565b95508019841693508086168417925050509392505050565b60006142df6142da6142d584612436565b612b56565b612436565b9050919050565b6000819050919050565b6142f9836142c4565b61430d614305826142e6565b848454614272565b825550505050565b600090565b614322614315565b61432d8184846142f0565b505050565b5b818110156143515761434660008261431a565b600181019050614333565b5050565b601f8211156143965761436781614240565b61437084614255565b8101602085101561437f578190505b61439361438b85614255565b830182614332565b50505b505050565b600082821c905092915050565b60006143b96000198460080261439b565b1980831691505092915050565b60006143d283836143a8565b9150826002028217905092915050565b6143eb826126e5565b67ffffffffffffffff8111156144045761440361230b565b5b61440e8254613915565b614419828285614355565b600060209050601f83116001811461444c576000841561443a578287015190505b61444485826143c6565b8655506144ac565b601f19841661445a86614240565b60005b828110156144825784890151825560018201915060208501945060208101905061445d565b8683101561449f578489015161449b601f8916826143a8565b8355505b6001600288020188555050505b505050505050565b600081905092915050565b60006144ca826126e5565b6144d481856144b4565b93506144e4818560208601612701565b80840191505092915050565b60006144fc82846144bf565b91508190509291505056fea264697066735822122016433a2d6278f198ae0f85ef7a97969dbcf806df93bf537a417bc39cf7bd928064736f6c6343000814003360806040523480156200001157600080fd5b506040518060400160405280600681526020017f506f696e747300000000000000000000000000000000000000000000000000008152506040518060400160405280600381526020017f505453000000000000000000000000000000000000000000000000000000000081525081600390816200008f919062000365565b508060049081620000a1919062000365565b50505033600560006101000a81548173ffffffffffffffffffffffffffffffffffffffff021916908373ffffffffffffffffffffffffffffffffffffffff1602179055506200044c565b600081519050919050565b7f4e487b7100000000000000000000000000000000000000000000000000000000600052604160045260246000fd5b7f4e487b7100000000000000000000000000000000000000000000000000000000600052602260045260246000fd5b600060028204905060018216806200016d57607f821691505b60208210810362000183576200018262000125565b5b50919050565b60008190508160005260206000209050919050565b60006020601f8301049050919050565b600082821b905092915050565b600060088302620001ed7fffffffffffffffffffffffffffffffffffffffffffffffffffffffffffffffff82620001ae565b620001f98683620001ae565b95508019841693508086168417925050509392505050565b6000819050919050565b6000819050919050565b600062000246620002406200023a8462000211565b6200021b565b62000211565b9050919050565b6000819050919050565b620002628362000225565b6200027a62000271826200024d565b848454620001bb565b825550505050565b600090565b6200029162000282565b6200029e81848462000257565b505050565b5b81811015620002c657620002ba60008262000287565b600181019050620002a4565b5050565b601f8211156200031557620002df8162000189565b620002ea846200019e565b81016020851015620002fa578190505b6200031262000309856200019e565b830182620002a3565b50505b505050565b600082821c905092915050565b60006200033a600019846008026200031a565b1980831691505092915050565b600062000355838362000327565b9150826002028217905092915050565b6200037082620000eb565b67ffffffffffffffff8111156200038c576200038b620000f6565b5b62000398825462000154565b620003a5828285620002ca565b600060209050601f831160018114620003dd5760008415620003c8578287015190505b620003d4858262000347565b86555062000444565b601f198416620003ed8662000189565b60005b828110156200041757848901518255600182019150602085019450602081019050620003f0565b8683101562000437578489015162000433601f89168262000327565b8355505b6001600288020188555050505b505050505050565b6113e2806200045c6000396000f3fe608060405234801561001057600080fd5b50600436106100f55760003560e01c806340c10f1911610097578063a9059cbb11610066578063a9059cbb14610262578063dd62ed3e14610292578063f4cdda36146102c2578063f851a440146102f2576100f5565b806340c10f19146101dc57806370a08231146101f857806395d89b41146102285780639dc29fac14610246576100f5565b806323b872dd116100d357806323b872dd146101665780632b5b687214610196578063313ce567146101b45780633884d635146101d2576100f5565b806306fdde03146100fa578063095ea7b31461011857806318160ddd14610148575b600080fd5b610102610310565b60405161010f9190610f38565b60405180910390f35b610132600480360381019061012d9190610ff3565b6103a2565b60405161013f919061104e565b60405180910390f35b6101506103c5565b60405161015d9190611078565b60405180910390f35b610180600480360381019061017b9190611093565b6103cf565b60405161018d919061104e565b60405180910390f35b61019e6103fe565b6040516101ab9190611078565b60405180910390f35b6101bc610404565b6040516101c99190611102565b60405180910390f35b6101da61040d565b005b6101f660048036038101906101f19190610ff3565b610500565b005b610212600480360381019061020d919061111d565b61059e565b60405161021f9190611078565b60405180910390f35b6102306105e6565b60405161023d9190610f38565b60405180910390f35b610260600480360381019061025b9190610ff3565b610678565b005b61027c60048036038101906102779190610ff3565b610716565b604051610289919061104e565b60405180910390f35b6102ac60048036038101906102a7919061114a565b610739565b6040516102b99190611078565b60405180910390f35b6102dc60048036038101906102d7919061111d565b6107c0565b6040516102e9919061104e565b60405180910390f35b6102fa6107e0565b6040516103079190611199565b60405180910390f35b60606003805461031f906111e3565b80601f016020809104026020016040519081016040528092919081815260200182805461034b906111e3565b80156103985780601f1061036d57610100808354040283529160200191610398565b820191906000526020600020905b81548152906001019060200180831161037b57829003601f168201915b5050505050905090565b6000806103ad610806565b90506103ba81858561080e565b600191505092915050565b6000600254905090565b6000806103da610806565b90506103e7858285610820565b6103f28585856108b4565b60019150509392505050565b61271081565b60006012905090565b600660003373ffffffffffffffffffffffffffffffffffffffff1673ffffffffffffffffffffffffffffffffffffffff16815260200190815260200160002060009054906101000a900460ff161561049a576040517f08c379a000000000000000000000000000000000000000000000000000000000815260040161049190611260565b60405180910390fd5b6001600660003373ffffffffffffffffffffffffffffffffffffffff1673ffffffffffffffffffffffffffffffffffffffff16815260200190815260200160002060006101000a81548160ff0219169083151502179055506104fe336127106109a8565b565b600560009054906101000a900473ffffffffffffffffffffffffffffffffffffffff1673ffffffffffffffffffffffffffffffffffffffff163373ffffffffffffffffffffffffffffffffffffffff1614610590576040517f08c379a0000000000000000000000000000000000000000000000000000000008152600401610587906112f2565b60405180910390fd5b61059a82826109a8565b5050565b60008060008373ffffffffffffffffffffffffffffffffffffffff1673ffffffffffffffffffffffffffffffffffffffff168152602001908152602001600020549050919050565b6060600480546105f5906111e3565b80601f0160208091040260200160405190810160405280929190818152602001828054610621906111e3565b801561066e5780601f106106435761010080835404028352916020019161066e565b820191906000526020600020905b81548152906001019060200180831161065157829003601f168201915b5050505050905090565b600560009054906101000a900473ffffffffffffffffffffffffffffffffffffffff1673ffffffffffffffffffffffffffffffffffffffff163373ffffffffffffffffffffffffffffffffffffffff1614610708576040517f08c379a00000000000000000000000000000000000000000000000000000000081526004016106ff906112f2565b60405180910390fd5b6107128282610a2a565b5050565b600080610721610806565b905061072e8185856108b4565b600191505092915050565b6000600160008473ffffffffffffffffffffffffffffffffffffffff1673ffffffffffffffffffffffffffffffffffffffff16815260200190815260200160002060008373ffffffffffffffffffffffffffffffffffffffff1673ffffffffffffffffffffffffffffffffffffffff16815260200190815260200160002054905092915050565b60066020528060005260406000206000915054906101000a900460ff1681565b600560009054906101000a900473ffffffffffffffffffffffffffffffffffffffff1681565b600033905090565b61081b8383836001610aac565b505050565b600061082c8484610739565b90507fffffffffffffffffffffffffffffffffffffffffffffffffffffffffffffffff81146108ae578181101561089e578281836040517ffb8f41b200000000000000000000000000000000000000000000000000000000815260040161089593929190611312565b60405180910390fd5b6108ad84848484036000610aac565b5b50505050565b600073ffffffffffffffffffffffffffffffffffffffff168373ffffffffffffffffffffffffffffffffffffffff16036109265760006040517f96c6fd1e00000000000000000000000000000000000000000000000000000000815260040161091d9190611199565b60405180910390fd5b600073ffffffffffffffffffffffffffffffffffffffff168273ffffffffffffffffffffffffffffffffffffffff16036109985760006040517fec442f0500000000000000000000000000000000000000000000000000000000815260040161098f9190611199565b60405180910390fd5b6109a3838383610c83565b505050565b600073ffffffffffffffffffffffffffffffffffffffff168273ffffffffffffffffffffffffffffffffffffffff1603610a1a5760006040517fec442f05000000000000000000000000000000000000000000000000000000008152600401610a119190611199565b60405180910390fd5b610a2660008383610c83565b5050565b600073ffffffffffffffffffffffffffffffffffffffff168273ffffffffffffffffffffffffffffffffffffffff1603610a9c5760006040517f96c6fd1e000000000000000000000000000000000000000000000000000000008152600401610a939190611199565b60405180910390fd5b610aa882600083610c83565b5050565b600073ffffffffffffffffffffffffffffffffffffffff168473ffffffffffffffffffffffffffffffffffffffff1603610b1e5760006040517fe602df05000000000000000000000000000000000000000000000000000000008152600401610b159190611199565b60405180910390fd5b600073ffffffffffffffffffffffffffffffffffffffff168373ffffffffffffffffffffffffffffffffffffffff1603610b905760006040517f94280d62000000000000000000000000000000000000000000000000000000008152600401610b879190611199565b60405180910390fd5b81600160008673ffffffffffffffffffffffffffffffffffffffff1673ffffffffffffffffffffffffffffffffffffffff16815260200190815260200160002060008573ffffffffffffffffffffffffffffffffffffffff1673ffffffffffffffffffffffffffffffffffffffff168152602001908152602001600020819055508015610c7d578273ffffffffffffffffffffffffffffffffffffffff168473ffffffffffffffffffffffffffffffffffffffff167f8c5be1e5ebec7d5bd14f71427d1e84f3dd0314c0f7b2291e5b200ac8c7c3b92584604051610c749190611078565b60405180910390a35b50505050565b600073ffffffffffffffffffffffffffffffffffffffff168373ffffffffffffffffffffffffffffffffffffffff1603610cd5578060026000828254610cc99190611378565b92505081905550610da8565b60008060008573ffffffffffffffffffffffffffffffffffffffff1673ffffffffffffffffffffffffffffffffffffffff16815260200190815260200160002054905081811015610d61578381836040517fe450d38c000000000000000000000000000000000000000000000000000000008152600401610d5893929190611312565b60405180910390fd5b8181036000808673ffffffffffffffffffffffffffffffffffffffff1673ffffffffffffffffffffffffffffffffffffffff16815260200190815260200160002081905550505b600073ffffffffffffffffffffffffffffffffffffffff168273ffffffffffffffffffffffffffffffffffffffff1603610df15780600260008282540392505081905550610e3e565b806000808473ffffffffffffffffffffffffffffffffffffffff1673ffffffffffffffffffffffffffffffffffffffff168152602001908152602001600020600082825401925050819055505b8173ffffffffffffffffffffffffffffffffffffffff168373ffffffffffffffffffffffffffffffffffffffff167fddf252ad1be2c89b69c2b068fc378daa952ba7f163c4a11628f55a4df523b3ef83604051610e9b9190611078565b60405180910390a3505050565b600081519050919050565b600082825260208201905092915050565b60005b83811015610ee2578082015181840152602081019050610ec7565b60008484015250505050565b6000601f19601f8301169050919050565b6000610f0a82610ea8565b610f148185610eb3565b9350610f24818560208601610ec4565b610f2d81610eee565b840191505092915050565b60006020820190508181036000830152610f528184610eff565b905092915050565b600080fd5b600073ffffffffffffffffffffffffffffffffffffffff82169050919050565b6000610f8a82610f5f565b9050919050565b610f9a81610f7f565b8114610fa557600080fd5b50565b600081359050610fb781610f91565b92915050565b6000819050919050565b610fd081610fbd565b8114610fdb57600080fd5b50565b600081359050610fed81610fc7565b92915050565b6000806040838503121561100a57611009610f5a565b5b600061101885828601610fa8565b925050602061102985828601610fde565b9150509250929050565b60008115159050919050565b61104881611033565b82525050565b6000602082019050611063600083018461103f565b92915050565b61107281610fbd565b82525050565b600060208201905061108d6000830184611069565b92915050565b6000806000606084860312156110ac576110ab610f5a565b5b60006110ba86828701610fa8565b93505060206110cb86828701610fa8565b92505060406110dc86828701610fde565b9150509250925092565b600060ff82169050919050565b6110fc816110e6565b82525050565b600060208201905061111760008301846110f3565b92915050565b60006020828403121561113357611132610f5a565b5b600061114184828501610fa8565b91505092915050565b6000806040838503121561116157611160610f5a565b5b600061116f85828601610fa8565b925050602061118085828601610fa8565b9150509250929050565b61119381610f7f565b82525050565b60006020820190506111ae600083018461118a565b92915050565b7f4e487b7100000000000000000000000000000000000000000000000000000000600052602260045260246000fd5b600060028204905060018216806111fb57607f821691505b60208210810361120e5761120d6111b4565b5b50919050565b7f41697264726f7020616c726561647920636c61696d6564000000000000000000600082015250565b600061124a601783610eb3565b915061125582611214565b602082019050919050565b600060208201905081810360008301526112798161123d565b9050919050565b7f4f6e6c792061646d696e2063616e2063616c6c20746869732066756e6374696f60008201527f6e00000000000000000000000000000000000000000000000000000000000000602082015250565b60006112dc602183610eb3565b91506112e782611280565b604082019050919050565b6000602082019050818103600083015261130b816112cf565b9050919050565b6000606082019050611327600083018661118a565b6113346020830185611069565b6113416040830184611069565b949350505050565b7f4e487b7100000000000000000000000000000000000000000000000000000000600052601160045260246000fd5b600061138382610fbd565b915061138e83610fbd565b92508282019050808211156113a6576113a5611349565b5b9291505056fea2646970667358221220b471479325d7b20c33c3a6b4646d844c974139c605f33e3997f96a66583058ce64736f6c6343000814003360806040523480156200001157600080fd5b506040518060400160405280600781526020017f5469636b657473000000000000000000000000000000000000000000000000008152506040518060400160405280600381526020017f544958000000000000000000000000000000000000000000000000000000000081525081600090816200008f919062000365565b508060019081620000a1919062000365565b50505033600b60006101000a81548173ffffffffffffffffffffffffffffffffffffffff021916908373ffffffffffffffffffffffffffffffffffffffff1602179055506200044c565b600081519050919050565b7f4e487b7100000000000000000000000000000000000000000000000000000000600052604160045260246000fd5b7f4e487b7100000000000000000000000000000000000000000000000000000000600052602260045260246000fd5b600060028204905060018216806200016d57607f821691505b60208210810362000183576200018262000125565b5b50919050565b60008190508160005260206000209050919050565b60006020601f8301049050919050565b600082821b905092915050565b600060088302620001ed7fffffffffffffffffffffffffffffffffffffffffffffffffffffffffffffffff82620001ae565b620001f98683620001ae565b95508019841693508086168417925050509392505050565b6000819050919050565b6000819050919050565b600062000246620002406200023a8462000211565b6200021b565b62000211565b9050919050565b6000819050919050565b620002628362000225565b6200027a62000271826200024d565b848454620001bb565b825550505050565b600090565b6200029162000282565b6200029e81848462000257565b505050565b5b81811015620002c657620002ba60008262000287565b600181019050620002a4565b5050565b601f8211156200031557620002df8162000189565b620002ea846200019e565b81016020851015620002fa578190505b6200031262000309856200019e565b830182620002a3565b50505b505050565b600082821c905092915050565b60006200033a600019846008026200031a565b1980831691505092915050565b600062000355838362000327565b9150826002028217905092915050565b6200037082620000eb565b67ffffffffffffffff8111156200038c576200038b620000f6565b5b62000398825462000154565b620003a5828285620002ca565b600060209050601f831160018114620003dd5760008415620003c8578287015190505b620003d4858262000347565b86555062000444565b601f198416620003ed8662000189565b60005b828110156200041757848901518255600182019150602085019450602081019050620003f0565b8683101562000437578489015162000433601f89168262000327565b8355505b6001600288020188555050505b505050505050565b615537806200045c6000396000f3fe608060405234801561001057600080fd5b50600436106102115760003560e01c80636352211e11610125578063c87b56dd116100ad578063e985e9c51161007c578063e985e9c514610697578063efb2d513146106c7578063f06fc961146106e3578063f851a44014610713578063fa7130831461073157610211565b8063c87b56dd146105eb578063cc68c0831461061b578063d42c29bd14610637578063db5bd0181461066757610211565b8063854eb2a9116100f4578063854eb2a91461054757806395d89b4114610565578063963ef2a214610583578063a22cb465146105b3578063b88d4fde146105cf57610211565b80636352211e1461049b57806370a08231146104cb57806382036a82146104fb578063831635241461052b57610211565b80630f078350116101a85780632f745c59116101775780632f745c59146103d15780633a6afbf61461040157806342842e0e146104315780634f6ccce71461044d5780636031a52f1461047d57610211565b80630f0783501461034b57806318160ddd1461037b57806323b872dd146103995780632a6c4c14146103b557610211565b806306fdde03116101e457806306fdde03146102c3578063081812fc146102e1578063095ea7b3146103115780630dc8251b1461032d57610211565b806301fe4af51461021657806301ffc9a7146102475780630484a22f146102775780630536897e146102a7575b600080fd5b610230600480360381019061022b9190613dde565b610764565b60405161023e929190613e1a565b60405180910390f35b610261600480360381019061025c9190613e9b565b610788565b60405161026e9190613ee3565b60405180910390f35b610291600480360381019061028c9190613f5c565b610802565b60405161029e91906143d5565b60405180910390f35b6102c160048036038101906102bc9190613dde565b610b68565b005b6102cb610c97565b6040516102d89190614441565b60405180910390f35b6102fb60048036038101906102f69190613dde565b610d29565b6040516103089190614472565b60405180910390f35b61032b6004803603810190610326919061448d565b610d45565b005b610335610d5b565b6040516103429190614614565b60405180910390f35b6103656004803603810190610360919061476b565b610fb4565b60405161037291906147da565b60405180910390f35b610383611008565b60405161039091906147da565b60405180910390f35b6103b360048036038101906103ae91906147f5565b611015565b005b6103cf60048036038101906103ca9190614848565b611117565b005b6103eb60048036038101906103e6919061448d565b611261565b6040516103f891906147da565b60405180910390f35b61041b6004803603810190610416919061448d565b61130a565b604051610428919061490e565b60405180910390f35b61044b600480360381019061044691906147f5565b6115e2565b005b61046760048036038101906104629190613dde565b611602565b60405161047491906147da565b60405180910390f35b610485611678565b60405161049291906147da565b60405180910390f35b6104b560048036038101906104b09190613dde565b61167e565b6040516104c29190614472565b60405180910390f35b6104e560048036038101906104e09190613f5c565b611690565b6040516104f291906147da565b60405180910390f35b61051560048036038101906105109190614930565b61174a565b6040516105229190614a92565b60405180910390f35b61054560048036038101906105409190613dde565b611c24565b005b61054f611c30565b60405161055c9190614b23565b60405180910390f35b61056d611c88565b60405161057a9190614441565b60405180910390f35b61059d60048036038101906105989190613f5c565b611d1a565b6040516105aa91906147da565b60405180910390f35b6105cd60048036038101906105c89190614b71565b611d2c565b005b6105e960048036038101906105e49190614c52565b611d42565b005b61060560048036038101906106009190613dde565b611d5f565b6040516106129190614441565b60405180910390f35b61063560048036038101906106309190614cd5565b611dc8565b005b610651600480360381019061064c9190613dde565b611df8565b60405161065e9190614d9c565b60405180910390f35b610681600480360381019061067c9190614848565b6122a7565b60405161068e91906147da565b60405180910390f35b6106b160048036038101906106ac9190614dbe565b6122d8565b6040516106be9190613ee3565b60405180910390f35b6106e160048036038101906106dc919061448d565b61236c565b005b6106fd60048036038101906106f89190613dde565b6123cb565b60405161070a91906147da565b60405180910390f35b61071b6123eb565b6040516107289190614472565b60405180910390f35b61074b60048036038101906107469190613dde565b612411565b60405161075b9493929190614e0d565b60405180910390f35b600c6020528060005260406000206000915090508060000154908060010154905082565b60007f780e9d63000000000000000000000000000000000000000000000000000000007bffffffffffffffffffffffffffffffffffffffffffffffffffffffff1916827bffffffffffffffffffffffffffffffffffffffffffffffffffffffff191614806107fb57506107fa826124d6565b5b9050919050565b61080a613c91565b600061081583611690565b905060008167ffffffffffffffff81111561083357610832614640565b5b60405190808252806020026020018201604052801561086c57816020015b610859613cb9565b8152602001906001900390816108515790505b50905060008267ffffffffffffffff81111561088b5761088a614640565b5b6040519080825280602002602001820160405280156108b95781602001602082028036833780820191505090505b50905060008367ffffffffffffffff8111156108d8576108d7614640565b5b60405190808252806020026020018201604052801561091157816020015b6108fe613cfa565b8152602001906001900390816108f65790505b5090506000805b85811015610b3a57600061092c8983611261565b90506000600f60008381526020019081526020016000206040518060800160405290816000820154815260200160018201805461096890614e88565b80601f016020809104026020016040519081016040528092919081815260200182805461099490614e88565b80156109e15780601f106109b6576101008083540402835291602001916109e1565b820191906000526020600020905b8154815290600101906020018083116109c457829003601f168201915b50505050508152602001600282015481526020016003820160009054906101000a900460ff166002811115610a1957610a18614054565b5b6002811115610a2b57610a2a614054565b5b8152505090506040518060a0016040528083815260200182600001518152602001826020015181526020018260400151815260200182606001516002811115610a7757610a76614054565b5b815250878481518110610a8d57610a8c614eb9565b5b6020026020010181905250610aa1826125b8565b15610b0557600c600083815260200190815260200160002060405180604001604052908160008201548152602001600182015481525050858581518110610aeb57610aea614eb9565b5b60200260200101819052508380610b0190614f17565b9450505b81868481518110610b1957610b18614eb9565b5b60200260200101818152505050508080610b3290614f17565b915050610918565b5060405180608001604052808681526020018581526020018381526020018481525095505050505050919050565b600060116000838152602001908152602001600020805480602002602001604051908101604052809291908181526020018280548015610bc757602002820191906000526020600020905b815481526020019060010190808311610bb3575b5050505050905060005b8151811015610c9257610bfd828281518110610bf057610bef614eb9565b5b60200260200101516125b8565b15610c2657610c25828281518110610c1857610c17614eb9565b5b602002602001015161260b565b5b6000600f6000848481518110610c3f57610c3e614eb9565b5b6020026020010151815260200190815260200160002060030160006101000a81548160ff02191690836002811115610c7a57610c79614054565b5b02179055508080610c8a90614f17565b915050610bd1565b505050565b606060008054610ca690614e88565b80601f0160208091040260200160405190810160405280929190818152602001828054610cd290614e88565b8015610d1f5780601f10610cf457610100808354040283529160200191610d1f565b820191906000526020600020905b815481529060010190602001808311610d0257829003601f168201915b5050505050905090565b6000610d348261274a565b50610d3e826127d2565b9050919050565b610d578282610d5261280f565b612817565b5050565b60606000600d80549050905060008167ffffffffffffffff811115610d8357610d82614640565b5b604051908082528060200260200182016040528015610dbc57816020015b610da9613d14565b815260200190600190039081610da15790505b50905060005b82811015610fab576000600d8281548110610de057610ddf614eb9565b5b906000526020600020015490506000600f600083815260200190815260200160002060405180608001604052908160008201548152602001600182018054610e2790614e88565b80601f0160208091040260200160405190810160405280929190818152602001828054610e5390614e88565b8015610ea05780601f10610e7557610100808354040283529160200191610ea0565b820191906000526020600020905b815481529060010190602001808311610e8357829003601f168201915b50505050508152602001600282015481526020016003820160009054906101000a900460ff166002811115610ed857610ed7614054565b5b6002811115610eea57610ee9614054565b5b8152505090506000600c60008481526020019081526020016000206040518060400160405290816000820154815260200160018201548152505090506040518060a0016040528084815260200182602001518152602001610f4a8561167e565b73ffffffffffffffffffffffffffffffffffffffff168152602001836000015181526020018360200151815250858581518110610f8a57610f89614eb9565b5b60200260200101819052505050508080610fa390614f17565b915050610dc2565b50809250505090565b6010602052826000526040600020828051602081018201805184825260208301602085012081835280955050505050508181548110610ff257600080fd5b9060005260206000200160009250925050505481565b6000600880549050905090565b600073ffffffffffffffffffffffffffffffffffffffff168273ffffffffffffffffffffffffffffffffffffffff16036110875760006040517f64a0ae9200000000000000000000000000000000000000000000000000000000815260040161107e9190614472565b60405180910390fd5b600061109b838361109661280f565b612829565b90508373ffffffffffffffffffffffffffffffffffffffff168173ffffffffffffffffffffffffffffffffffffffff1614611111578382826040517f64283d7b00000000000000000000000000000000000000000000000000000000815260040161110893929190614f5f565b60405180910390fd5b50505050565b6111208261167e565b73ffffffffffffffffffffffffffffffffffffffff163373ffffffffffffffffffffffffffffffffffffffff161461118d576040517f08c379a000000000000000000000000000000000000000000000000000000000815260040161118490614fe2565b60405180910390fd5b604051806040016040528083815260200182815250600c600084815260200190815260200160002060008201518160000155602082015181600101559050506002600f600084815260200190815260200160002060030160006101000a81548160ff0219169083600281111561120657611205614054565b5b0217905550600d8290806001815401808255809150506001900390600052602060002001600090919091909150556001600d805490506112469190615002565b600e6000848152602001908152602001600020819055505050565b600061126c83611690565b82106112b15782826040517fa57d13dc0000000000000000000000000000000000000000000000000000000081526004016112a8929190615036565b60405180910390fd5b600660008473ffffffffffffffffffffffffffffffffffffffff1673ffffffffffffffffffffffffffffffffffffffff168152602001908152602001600020600083815260200190815260200160002054905092915050565b6060600061131784611690565b905060008167ffffffffffffffff81111561133557611334614640565b5b60405190808252806020026020018201604052801561136e57816020015b61135b613cb9565b8152602001906001900390816113535790505b5090506000805b838110156115245760006113898883611261565b90506000600f6000838152602001908152602001600020604051806080016040529081600082015481526020016001820180546113c590614e88565b80601f01602080910402602001604051908101604052809291908181526020018280546113f190614e88565b801561143e5780601f106114135761010080835404028352916020019161143e565b820191906000526020600020905b81548152906001019060200180831161142157829003601f168201915b50505050508152602001600282015481526020016003820160009054906101000a900460ff16600281111561147657611475614054565b5b600281111561148857611487614054565b5b8152505090508781600001510361150f576040518060a00160405280838152602001826000015181526020018260200151815260200182604001518152602001826060015160028111156114df576114de614054565b5b8152508585815181106114f5576114f4614eb9565b5b6020026020010181905250838061150b90614f17565b9450505b5050808061151c90614f17565b915050611375565b5060008167ffffffffffffffff81111561154157611540614640565b5b60405190808252806020026020018201604052801561157a57816020015b611567613cb9565b81526020019060019003908161155f5790505b50905060005b828110156115d45783818151811061159b5761159a614eb9565b5b60200260200101518282815181106115b6576115b5614eb9565b5b602002602001018190525080806115cc90614f17565b915050611580565b508094505050505092915050565b6115fd83838360405180602001604052806000815250611d42565b505050565b600061160c611008565b8210611652576000826040517fa57d13dc000000000000000000000000000000000000000000000000000000008152600401611649929190615036565b60405180910390fd5b6008828154811061166657611665614eb9565b5b90600052602060002001549050919050565b600a5481565b60006116898261274a565b9050919050565b60008073ffffffffffffffffffffffffffffffffffffffff168273ffffffffffffffffffffffffffffffffffffffff16036117035760006040517f89c62b640000000000000000000000000000000000000000000000000000000081526004016116fa9190614472565b60405180910390fd5b600360008373ffffffffffffffffffffffffffffffffffffffff1673ffffffffffffffffffffffffffffffffffffffff168152602001908152602001600020549050919050565b611752613d59565b60006010600085815260200190815260200160002083604051611775919061509b565b90815260200160405180910390208054806020026020016040519081016040528092919081815260200182805480156117cd57602002820191906000526020600020905b8154815260200190600101908083116117b9575b505050505090506000815103611893576040518060600160405280600067ffffffffffffffff81111561180357611802614640565b5b6040519080825280602002602001820160405280156118315781602001602082028036833780820191505090505b508152602001600067ffffffffffffffff81111561185257611851614640565b5b6040519080825280602002602001820160405280156118805781602001602082028036833780820191505090505b5081526020016000815250915050611c1e565b6000815167ffffffffffffffff8111156118b0576118af614640565b5b6040519080825280602002602001820160405280156118de5781602001602082028036833780820191505090505b5090506000825167ffffffffffffffff8111156118fe576118fd614640565b5b60405190808252806020026020018201604052801561192c5781602001602082028036833780820191505090505b5090506000805b8451811015611a9d57600061196186838151811061195457611953614eb9565b5b602002602001015161167e565b90506000805b84811015611a04578273ffffffffffffffffffffffffffffffffffffffff1687828151811061199957611998614eb9565b5b602002602001015173ffffffffffffffffffffffffffffffffffffffff16036119f1578581815181106119cf576119ce614eb9565b5b6020026020010180518091906119e490614f17565b8152505060019150611a04565b80806119fc90614f17565b915050611967565b5080611a885781868581518110611a1e57611a1d614eb9565b5b602002602001019073ffffffffffffffffffffffffffffffffffffffff16908173ffffffffffffffffffffffffffffffffffffffff16815250506001858581518110611a6d57611a6c614eb9565b5b6020026020010181815250508380611a8490614f17565b9450505b50508080611a9590614f17565b915050611933565b5060008167ffffffffffffffff811115611aba57611ab9614640565b5b604051908082528060200260200182016040528015611ae85781602001602082028036833780820191505090505b50905060008267ffffffffffffffff811115611b0757611b06614640565b5b604051908082528060200260200182016040528015611b355781602001602082028036833780820191505090505b50905060005b83811015611bf857858181518110611b5657611b55614eb9565b5b6020026020010151838281518110611b7157611b70614eb9565b5b602002602001019073ffffffffffffffffffffffffffffffffffffffff16908173ffffffffffffffffffffffffffffffffffffffff1681525050848181518110611bbe57611bbd614eb9565b5b6020026020010151828281518110611bd957611bd8614eb9565b5b6020026020010181815250508080611bf090614f17565b915050611b3b565b506040518060600160405280838152602001828152602001875181525096505050505050505b92915050565b611c2d8161260b565b50565b6060600d805480602002602001604051908101604052809291908181526020018280548015611c7e57602002820191906000526020600020905b815481526020019060010190808311611c6a575b5050505050905090565b606060018054611c9790614e88565b80601f0160208091040260200160405190810160405280929190818152602001828054611cc390614e88565b8015611d105780601f10611ce557610100808354040283529160200191611d10565b820191906000526020600020905b815481529060010190602001808311611cf357829003601f168201915b5050505050905090565b6000611d2582611690565b9050919050565b611d3e611d3761280f565b8383612946565b5050565b611d4d848484611015565b611d5984848484612ab5565b50505050565b6060611d6a8261274a565b506000611d75612c6c565b90506000815111611d955760405180602001604052806000815250611dc0565b80611d9f84612c83565b604051602001611db09291906150b2565b6040516020818303038152906040525b915050919050565b60005b81811015611df157611dde858585612d51565b8080611de990614f17565b915050611dcb565b5050505050565b611e00613d7a565b600060116000848152602001908152602001600020805480602002602001604051908101604052809291908181526020018280548015611e5f57602002820191906000526020600020905b815481526020019060010190808311611e4b575b505050505090506000815103611f1e576040518060400160405280600067ffffffffffffffff811115611e9557611e94614640565b5b604051908082528060200260200182016040528015611ec35781602001602082028036833780820191505090505b508152602001600067ffffffffffffffff811115611ee457611ee3614640565b5b604051908082528060200260200182016040528015611f125781602001602082028036833780820191505090505b508152509150506122a2565b6000815167ffffffffffffffff811115611f3b57611f3a614640565b5b604051908082528060200260200182016040528015611f695781602001602082028036833780820191505090505b5090506000825167ffffffffffffffff811115611f8957611f88614640565b5b604051908082528060200260200182016040528015611fb75781602001602082028036833780820191505090505b5090506000805b8451811015612128576000611fec868381518110611fdf57611fde614eb9565b5b602002602001015161167e565b90506000805b8481101561208f578273ffffffffffffffffffffffffffffffffffffffff1687828151811061202457612023614eb9565b5b602002602001015173ffffffffffffffffffffffffffffffffffffffff160361207c5785818151811061205a57612059614eb9565b5b60200260200101805180919061206f90614f17565b815250506001915061208f565b808061208790614f17565b915050611ff2565b508061211357818685815181106120a9576120a8614eb9565b5b602002602001019073ffffffffffffffffffffffffffffffffffffffff16908173ffffffffffffffffffffffffffffffffffffffff168152505060018585815181106120f8576120f7614eb9565b5b602002602001018181525050838061210f90614f17565b9450505b5050808061212090614f17565b915050611fbe565b5060008167ffffffffffffffff81111561214557612144614640565b5b6040519080825280602002602001820160405280156121735781602001602082028036833780820191505090505b50905060008267ffffffffffffffff81111561219257612191614640565b5b6040519080825280602002602001820160405280156121c05781602001602082028036833780820191505090505b50905060005b83811015612283578581815181106121e1576121e0614eb9565b5b60200260200101518382815181106121fc576121fb614eb9565b5b602002602001019073ffffffffffffffffffffffffffffffffffffffff16908173ffffffffffffffffffffffffffffffffffffffff168152505084818151811061224957612248614eb9565b5b602002602001015182828151811061226457612263614eb9565b5b602002602001018181525050808061227b90614f17565b9150506121c6565b5060405180604001604052808381526020018281525096505050505050505b919050565b601160205281600052604060002081815481106122c357600080fd5b90600052602060002001600091509150505481565b6000600560008473ffffffffffffffffffffffffffffffffffffffff1673ffffffffffffffffffffffffffffffffffffffff16815260200190815260200160002060008373ffffffffffffffffffffffffffffffffffffffff1673ffffffffffffffffffffffffffffffffffffffff16815260200190815260200160002060009054906101000a900460ff16905092915050565b61237f6123788261167e565b8383612eb4565b6001600f600083815260200190815260200160002060030160006101000a81548160ff021916908360028111156123b9576123b8614054565b5b02179055506123c78161260b565b5050565b6000600c6000838152602001908152602001600020600101549050919050565b600b60009054906101000a900473ffffffffffffffffffffffffffffffffffffffff1681565b600f60205280600052604060002060009150905080600001549080600101805461243a90614e88565b80601f016020809104026020016040519081016040528092919081815260200182805461246690614e88565b80156124b35780601f10612488576101008083540402835291602001916124b3565b820191906000526020600020905b81548152906001019060200180831161249657829003601f168201915b5050505050908060020154908060030160009054906101000a900460ff16905084565b60007f80ac58cd000000000000000000000000000000000000000000000000000000007bffffffffffffffffffffffffffffffffffffffffffffffffffffffff1916827bffffffffffffffffffffffffffffffffffffffffffffffffffffffff191614806125a157507f5b5e139f000000000000000000000000000000000000000000000000000000007bffffffffffffffffffffffffffffffffffffffffffffffffffffffff1916827bffffffffffffffffffffffffffffffffffffffffffffffffffffffff1916145b806125b157506125b082613021565b5b9050919050565b60006002808111156125cd576125cc614054565b5b600f600084815260200190815260200160002060030160009054906101000a900460ff16600281111561260357612602614054565b5b149050919050565b600b60009054906101000a900473ffffffffffffffffffffffffffffffffffffffff1673ffffffffffffffffffffffffffffffffffffffff163373ffffffffffffffffffffffffffffffffffffffff16148061269a575061266b8161167e565b73ffffffffffffffffffffffffffffffffffffffff163373ffffffffffffffffffffffffffffffffffffffff16145b6126d9576040517f08c379a00000000000000000000000000000000000000000000000000000000081526004016126d090615122565b60405180910390fd5b6001600f600083815260200190815260200160002060030160006101000a81548160ff0219169083600281111561271357612712614054565b5b0217905550600c6000828152602001908152602001600020600080820160009055600182016000905550506127478161308b565b50565b60008061275683613164565b9050600073ffffffffffffffffffffffffffffffffffffffff168173ffffffffffffffffffffffffffffffffffffffff16036127c957826040517f7e2732890000000000000000000000000000000000000000000000000000000081526004016127c091906147da565b60405180910390fd5b80915050919050565b60006004600083815260200190815260200160002060009054906101000a900473ffffffffffffffffffffffffffffffffffffffff169050919050565b600033905090565b61282483838360016131a1565b505050565b600080612837858585613366565b9050600073ffffffffffffffffffffffffffffffffffffffff168173ffffffffffffffffffffffffffffffffffffffff160361287b5761287684613580565b6128ba565b8473ffffffffffffffffffffffffffffffffffffffff168173ffffffffffffffffffffffffffffffffffffffff16146128b9576128b881856135c9565b5b5b600073ffffffffffffffffffffffffffffffffffffffff168573ffffffffffffffffffffffffffffffffffffffff16036128fc576128f78461372a565b61293b565b8473ffffffffffffffffffffffffffffffffffffffff168173ffffffffffffffffffffffffffffffffffffffff161461293a5761293985856137fb565b5b5b809150509392505050565b600073ffffffffffffffffffffffffffffffffffffffff168273ffffffffffffffffffffffffffffffffffffffff16036129b757816040517f5b08ba180000000000000000000000000000000000000000000000000000000081526004016129ae9190614472565b60405180910390fd5b80600560008573ffffffffffffffffffffffffffffffffffffffff1673ffffffffffffffffffffffffffffffffffffffff16815260200190815260200160002060008473ffffffffffffffffffffffffffffffffffffffff1673ffffffffffffffffffffffffffffffffffffffff16815260200190815260200160002060006101000a81548160ff0219169083151502179055508173ffffffffffffffffffffffffffffffffffffffff168373ffffffffffffffffffffffffffffffffffffffff167f17307eab39ab6107e8899845ad3d59bd9653f200f220920489ca2b5937696c3183604051612aa89190613ee3565b60405180910390a3505050565b60008373ffffffffffffffffffffffffffffffffffffffff163b1115612c66578273ffffffffffffffffffffffffffffffffffffffff1663150b7a02612af961280f565b8685856040518563ffffffff1660e01b8152600401612b1b9493929190615197565b6020604051808303816000875af1925050508015612b5757506040513d601f19601f82011682018060405250810190612b5491906151f8565b60015b612bdb573d8060008114612b87576040519150601f19603f3d011682016040523d82523d6000602084013e612b8c565b606091505b506000815103612bd357836040517f64a0ae92000000000000000000000000000000000000000000000000000000008152600401612bca9190614472565b60405180910390fd5b805181602001fd5b63150b7a0260e01b7bffffffffffffffffffffffffffffffffffffffffffffffffffffffff1916817bffffffffffffffffffffffffffffffffffffffffffffffffffffffff191614612c6457836040517f64a0ae92000000000000000000000000000000000000000000000000000000008152600401612c5b9190614472565b60405180910390fd5b505b50505050565b606060405180602001604052806000815250905090565b606060006001612c9284613886565b01905060008167ffffffffffffffff811115612cb157612cb0614640565b5b6040519080825280601f01601f191660200182016040528015612ce35781602001600182028036833780820191505090505b509050600082602001820190505b600115612d46578080600190039150507f3031323334353637383961626364656600000000000000000000000000000000600a86061a8153600a8581612d3a57612d39615225565b5b04945060008503612cf1575b819350505050919050565b6000600a549050612d6284826139d9565b604051806080016040528084815260200183815260200142815260200160016002811115612d9357612d92614054565b5b815250600f6000838152602001908152602001600020600082015181600001556020820151816001019081612dc89190615400565b506040820151816002015560608201518160030160006101000a81548160ff02191690836002811115612dfe57612dfd614054565b5b02179055509050506010600084815260200190815260200160002082604051612e27919061509b565b908152602001604051809103902081908060018154018082558091505060019003906000526020600020016000909190919091505560116000848152602001908152602001600020819080600181540180825580915050600190039060005260206000200160009091909190915055600a6000815480929190612ea990614f17565b919050555050505050565b600073ffffffffffffffffffffffffffffffffffffffff168273ffffffffffffffffffffffffffffffffffffffff1603612f265760006040517f64a0ae92000000000000000000000000000000000000000000000000000000008152600401612f1d9190614472565b60405180910390fd5b6000612f3483836000612829565b9050600073ffffffffffffffffffffffffffffffffffffffff168173ffffffffffffffffffffffffffffffffffffffff1603612fa757816040517f7e273289000000000000000000000000000000000000000000000000000000008152600401612f9e91906147da565b60405180910390fd5b8373ffffffffffffffffffffffffffffffffffffffff168173ffffffffffffffffffffffffffffffffffffffff161461301b578382826040517f64283d7b00000000000000000000000000000000000000000000000000000000815260040161301293929190614f5f565b60405180910390fd5b50505050565b60007f01ffc9a7000000000000000000000000000000000000000000000000000000007bffffffffffffffffffffffffffffffffffffffffffffffffffffffff1916827bffffffffffffffffffffffffffffffffffffffffffffffffffffffff1916149050919050565b6000600e600083815260200190815260200160002054905060006001600d805490506130b79190615002565b9050808214613120576000600d82815481106130d6576130d5614eb9565b5b9060005260206000200154905080600d84815481106130f8576130f7614eb9565b5b906000526020600020018190555082600e600083815260200190815260200160002081905550505b600d805480613132576131316154d2565b5b60019003818190600052602060002001600090559055600e600084815260200190815260200160002060009055505050565b60006002600083815260200190815260200160002060009054906101000a900473ffffffffffffffffffffffffffffffffffffffff169050919050565b80806131da5750600073ffffffffffffffffffffffffffffffffffffffff168273ffffffffffffffffffffffffffffffffffffffff1614155b1561330e5760006131ea8461274a565b9050600073ffffffffffffffffffffffffffffffffffffffff168373ffffffffffffffffffffffffffffffffffffffff161415801561325557508273ffffffffffffffffffffffffffffffffffffffff168173ffffffffffffffffffffffffffffffffffffffff1614155b8015613268575061326681846122d8565b155b156132aa57826040517fa9fbf51f0000000000000000000000000000000000000000000000000000000081526004016132a19190614472565b60405180910390fd5b811561330c57838573ffffffffffffffffffffffffffffffffffffffff168273ffffffffffffffffffffffffffffffffffffffff167f8c5be1e5ebec7d5bd14f71427d1e84f3dd0314c0f7b2291e5b200ac8c7c3b92560405160405180910390a45b505b836004600085815260200190815260200160002060006101000a81548173ffffffffffffffffffffffffffffffffffffffff021916908373ffffffffffffffffffffffffffffffffffffffff16021790555050505050565b60008061337284613164565b9050600073ffffffffffffffffffffffffffffffffffffffff168373ffffffffffffffffffffffffffffffffffffffff16146133b4576133b38184866139f7565b5b600073ffffffffffffffffffffffffffffffffffffffff168173ffffffffffffffffffffffffffffffffffffffff1614613445576133f66000856000806131a1565b6001600360008373ffffffffffffffffffffffffffffffffffffffff1673ffffffffffffffffffffffffffffffffffffffff168152602001908152602001600020600082825403925050819055505b600073ffffffffffffffffffffffffffffffffffffffff168573ffffffffffffffffffffffffffffffffffffffff16146134c8576001600360008773ffffffffffffffffffffffffffffffffffffffff1673ffffffffffffffffffffffffffffffffffffffff168152602001908152602001600020600082825401925050819055505b846002600086815260200190815260200160002060006101000a81548173ffffffffffffffffffffffffffffffffffffffff021916908373ffffffffffffffffffffffffffffffffffffffff160217905550838573ffffffffffffffffffffffffffffffffffffffff168273ffffffffffffffffffffffffffffffffffffffff167fddf252ad1be2c89b69c2b068fc378daa952ba7f163c4a11628f55a4df523b3ef60405160405180910390a4809150509392505050565b6008805490506009600083815260200190815260200160002081905550600881908060018154018082558091505060019003906000526020600020016000909190919091505550565b60006135d483611690565b90506000600760008481526020019081526020016000205490508181146136b9576000600660008673ffffffffffffffffffffffffffffffffffffffff1673ffffffffffffffffffffffffffffffffffffffff168152602001908152602001600020600084815260200190815260200160002054905080600660008773ffffffffffffffffffffffffffffffffffffffff1673ffffffffffffffffffffffffffffffffffffffff168152602001908152602001600020600084815260200190815260200160002081905550816007600083815260200190815260200160002081905550505b6007600084815260200190815260200160002060009055600660008573ffffffffffffffffffffffffffffffffffffffff1673ffffffffffffffffffffffffffffffffffffffff16815260200190815260200160002060008381526020019081526020016000206000905550505050565b6000600160088054905061373e9190615002565b905060006009600084815260200190815260200160002054905060006008838154811061376e5761376d614eb9565b5b9060005260206000200154905080600883815481106137905761378f614eb9565b5b9060005260206000200181905550816009600083815260200190815260200160002081905550600960008581526020019081526020016000206000905560088054806137df576137de6154d2565b5b6001900381819060005260206000200160009055905550505050565b6000600161380884611690565b6138129190615002565b905081600660008573ffffffffffffffffffffffffffffffffffffffff1673ffffffffffffffffffffffffffffffffffffffff168152602001908152602001600020600083815260200190815260200160002081905550806007600084815260200190815260200160002081905550505050565b600080600090507a184f03e93ff9f4daa797ed6e38ed64bf6a1f01000000000000000083106138e4577a184f03e93ff9f4daa797ed6e38ed64bf6a1f01000000000000000083816138da576138d9615225565b5b0492506040810190505b6d04ee2d6d415b85acef81000000008310613921576d04ee2d6d415b85acef8100000000838161391757613916615225565b5b0492506020810190505b662386f26fc10000831061395057662386f26fc10000838161394657613945615225565b5b0492506010810190505b6305f5e1008310613979576305f5e100838161396f5761396e615225565b5b0492506008810190505b612710831061399e57612710838161399457613993615225565b5b0492506004810190505b606483106139c157606483816139b7576139b6615225565b5b0492506002810190505b600a83106139d0576001810190505b80915050919050565b6139f3828260405180602001604052806000815250613abb565b5050565b613a02838383613ad7565b613ab657600073ffffffffffffffffffffffffffffffffffffffff168373ffffffffffffffffffffffffffffffffffffffff1603613a7757806040517f7e273289000000000000000000000000000000000000000000000000000000008152600401613a6e91906147da565b60405180910390fd5b81816040517f177e802f000000000000000000000000000000000000000000000000000000008152600401613aad929190615036565b60405180910390fd5b505050565b613ac58383613b98565b613ad26000848484612ab5565b505050565b60008073ffffffffffffffffffffffffffffffffffffffff168373ffffffffffffffffffffffffffffffffffffffff1614158015613b8f57508273ffffffffffffffffffffffffffffffffffffffff168473ffffffffffffffffffffffffffffffffffffffff161480613b505750613b4f84846122d8565b5b80613b8e57508273ffffffffffffffffffffffffffffffffffffffff16613b76836127d2565b73ffffffffffffffffffffffffffffffffffffffff16145b5b90509392505050565b600073ffffffffffffffffffffffffffffffffffffffff168273ffffffffffffffffffffffffffffffffffffffff1603613c0a5760006040517f64a0ae92000000000000000000000000000000000000000000000000000000008152600401613c019190614472565b60405180910390fd5b6000613c1883836000612829565b9050600073ffffffffffffffffffffffffffffffffffffffff168173ffffffffffffffffffffffffffffffffffffffff1614613c8c5760006040517f73c6ac6e000000000000000000000000000000000000000000000000000000008152600401613c839190614472565b60405180910390fd5b505050565b6040518060800160405280600081526020016060815260200160608152602001606081525090565b6040518060a001604052806000815260200160008152602001606081526020016000815260200160006002811115613cf457613cf3614054565b5b81525090565b604051806040016040528060008152602001600081525090565b6040518060a001604052806000815260200160008152602001600073ffffffffffffffffffffffffffffffffffffffff16815260200160008152602001606081525090565b60405180606001604052806060815260200160608152602001600081525090565b604051806040016040528060608152602001606081525090565b6000604051905090565b600080fd5b600080fd5b6000819050919050565b613dbb81613da8565b8114613dc657600080fd5b50565b600081359050613dd881613db2565b92915050565b600060208284031215613df457613df3613d9e565b5b6000613e0284828501613dc9565b91505092915050565b613e1481613da8565b82525050565b6000604082019050613e2f6000830185613e0b565b613e3c6020830184613e0b565b9392505050565b60007fffffffff0000000000000000000000000000000000000000000000000000000082169050919050565b613e7881613e43565b8114613e8357600080fd5b50565b600081359050613e9581613e6f565b92915050565b600060208284031215613eb157613eb0613d9e565b5b6000613ebf84828501613e86565b91505092915050565b60008115159050919050565b613edd81613ec8565b82525050565b6000602082019050613ef86000830184613ed4565b92915050565b600073ffffffffffffffffffffffffffffffffffffffff82169050919050565b6000613f2982613efe565b9050919050565b613f3981613f1e565b8114613f4457600080fd5b50565b600081359050613f5681613f30565b92915050565b600060208284031215613f7257613f71613d9e565b5b6000613f8084828501613f47565b91505092915050565b613f9281613da8565b82525050565b600081519050919050565b600082825260208201905092915050565b6000819050602082019050919050565b600081519050919050565b600082825260208201905092915050565b60005b83811015613ffe578082015181840152602081019050613fe3565b60008484015250505050565b6000601f19601f8301169050919050565b600061402682613fc4565b6140308185613fcf565b9350614040818560208601613fe0565b6140498161400a565b840191505092915050565b7f4e487b7100000000000000000000000000000000000000000000000000000000600052602160045260246000fd5b6003811061409457614093614054565b5b50565b60008190506140a582614083565b919050565b60006140b582614097565b9050919050565b6140c5816140aa565b82525050565b600060a0830160008301516140e36000860182613f89565b5060208301516140f66020860182613f89565b506040830151848203604086015261410e828261401b565b91505060608301516141236060860182613f89565b50608083015161413660808601826140bc565b508091505092915050565b600061414d83836140cb565b905092915050565b6000602082019050919050565b600061416d82613f98565b6141778185613fa3565b93508360208202850161418985613fb4565b8060005b858110156141c557848403895281516141a68582614141565b94506141b183614155565b925060208a0199505060018101905061418d565b50829750879550505050505092915050565b600081519050919050565b600082825260208201905092915050565b6000819050602082019050919050565b6040820160008201516142196000850182613f89565b50602082015161422c6020850182613f89565b50505050565b600061423e8383614203565b60408301905092915050565b6000602082019050919050565b6000614262826141d7565b61426c81856141e2565b9350614277836141f3565b8060005b838110156142a857815161428f8882614232565b975061429a8361424a565b92505060018101905061427b565b5085935050505092915050565b600081519050919050565b600082825260208201905092915050565b6000819050602082019050919050565b60006142ed8383613f89565b60208301905092915050565b6000602082019050919050565b6000614311826142b5565b61431b81856142c0565b9350614326836142d1565b8060005b8381101561435757815161433e88826142e1565b9750614349836142f9565b92505060018101905061432a565b5085935050505092915050565b600060808301600083015161437c6000860182613f89565b50602083015184820360208601526143948282614162565b915050604083015184820360408601526143ae8282614257565b915050606083015184820360608601526143c88282614306565b9150508091505092915050565b600060208201905081810360008301526143ef8184614364565b905092915050565b600082825260208201905092915050565b600061441382613fc4565b61441d81856143f7565b935061442d818560208601613fe0565b6144368161400a565b840191505092915050565b6000602082019050818103600083015261445b8184614408565b905092915050565b61446c81613f1e565b82525050565b60006020820190506144876000830184614463565b92915050565b600080604083850312156144a4576144a3613d9e565b5b60006144b285828601613f47565b92505060206144c385828601613dc9565b9150509250929050565b600081519050919050565b600082825260208201905092915050565b6000819050602082019050919050565b61450281613f1e565b82525050565b600060a0830160008301516145206000860182613f89565b5060208301516145336020860182613f89565b50604083015161454660408601826144f9565b5060608301516145596060860182613f89565b5060808301518482036080860152614571828261401b565b9150508091505092915050565b600061458a8383614508565b905092915050565b6000602082019050919050565b60006145aa826144cd565b6145b481856144d8565b9350836020820285016145c6856144e9565b8060005b8581101561460257848403895281516145e3858261457e565b94506145ee83614592565b925060208a019950506001810190506145ca565b50829750879550505050505092915050565b6000602082019050818103600083015261462e818461459f565b905092915050565b600080fd5b600080fd5b7f4e487b7100000000000000000000000000000000000000000000000000000000600052604160045260246000fd5b6146788261400a565b810181811067ffffffffffffffff8211171561469757614696614640565b5b80604052505050565b60006146aa613d94565b90506146b6828261466f565b919050565b600067ffffffffffffffff8211156146d6576146d5614640565b5b6146df8261400a565b9050602081019050919050565b82818337600083830152505050565b600061470e614709846146bb565b6146a0565b90508281526020810184848401111561472a5761472961463b565b5b6147358482856146ec565b509392505050565b600082601f83011261475257614751614636565b5b81356147628482602086016146fb565b91505092915050565b60008060006060848603121561478457614783613d9e565b5b600061479286828701613dc9565b935050602084013567ffffffffffffffff8111156147b3576147b2613da3565b5b6147bf8682870161473d565b92505060406147d086828701613dc9565b9150509250925092565b60006020820190506147ef6000830184613e0b565b92915050565b60008060006060848603121561480e5761480d613d9e565b5b600061481c86828701613f47565b935050602061482d86828701613f47565b925050604061483e86828701613dc9565b9150509250925092565b6000806040838503121561485f5761485e613d9e565b5b600061486d85828601613dc9565b925050602061487e85828601613dc9565b9150509250929050565b600082825260208201905092915050565b60006148a482613f98565b6148ae8185614888565b9350836020820285016148c085613fb4565b8060005b858110156148fc57848403895281516148dd8582614141565b94506148e883614155565b925060208a019950506001810190506148c4565b50829750879550505050505092915050565b600060208201905081810360008301526149288184614899565b905092915050565b6000806040838503121561494757614946613d9e565b5b600061495585828601613dc9565b925050602083013567ffffffffffffffff81111561497657614975613da3565b5b6149828582860161473d565b9150509250929050565b600081519050919050565b600082825260208201905092915050565b6000819050602082019050919050565b60006149c483836144f9565b60208301905092915050565b6000602082019050919050565b60006149e88261498c565b6149f28185614997565b93506149fd836149a8565b8060005b83811015614a2e578151614a1588826149b8565b9750614a20836149d0565b925050600181019050614a01565b5085935050505092915050565b60006060830160008301518482036000860152614a5882826149dd565b91505060208301518482036020860152614a728282614306565b9150506040830151614a876040860182613f89565b508091505092915050565b60006020820190508181036000830152614aac8184614a3b565b905092915050565b600082825260208201905092915050565b6000614ad0826142b5565b614ada8185614ab4565b9350614ae5836142d1565b8060005b83811015614b16578151614afd88826142e1565b9750614b08836142f9565b925050600181019050614ae9565b5085935050505092915050565b60006020820190508181036000830152614b3d8184614ac5565b905092915050565b614b4e81613ec8565b8114614b5957600080fd5b50565b600081359050614b6b81614b45565b92915050565b60008060408385031215614b8857614b87613d9e565b5b6000614b9685828601613f47565b9250506020614ba785828601614b5c565b9150509250929050565b600067ffffffffffffffff821115614bcc57614bcb614640565b5b614bd58261400a565b9050602081019050919050565b6000614bf5614bf084614bb1565b6146a0565b905082815260208101848484011115614c1157614c1061463b565b5b614c1c8482856146ec565b509392505050565b600082601f830112614c3957614c38614636565b5b8135614c49848260208601614be2565b91505092915050565b60008060008060808587031215614c6c57614c6b613d9e565b5b6000614c7a87828801613f47565b9450506020614c8b87828801613f47565b9350506040614c9c87828801613dc9565b925050606085013567ffffffffffffffff811115614cbd57614cbc613da3565b5b614cc987828801614c24565b91505092959194509250565b60008060008060808587031215614cef57614cee613d9e565b5b6000614cfd87828801613f47565b9450506020614d0e87828801613dc9565b935050604085013567ffffffffffffffff811115614d2f57614d2e613da3565b5b614d3b8782880161473d565b9250506060614d4c87828801613dc9565b91505092959194509250565b60006040830160008301518482036000860152614d7582826149dd565b91505060208301518482036020860152614d8f8282614306565b9150508091505092915050565b60006020820190508181036000830152614db68184614d58565b905092915050565b60008060408385031215614dd557614dd4613d9e565b5b6000614de385828601613f47565b9250506020614df485828601613f47565b9150509250929050565b614e07816140aa565b82525050565b6000608082019050614e226000830187613e0b565b8181036020830152614e348186614408565b9050614e436040830185613e0b565b614e506060830184614dfe565b95945050505050565b7f4e487b7100000000000000000000000000000000000000000000000000000000600052602260045260246000fd5b60006002820490506001821680614ea057607f821691505b602082108103614eb357614eb2614e59565b5b50919050565b7f4e487b7100000000000000000000000000000000000000000000000000000000600052603260045260246000fd5b7f4e487b7100000000000000000000000000000000000000000000000000000000600052601160045260246000fd5b6000614f2282613da8565b91507fffffffffffffffffffffffffffffffffffffffffffffffffffffffffffffffff8203614f5457614f53614ee8565b5b600182019050919050565b6000606082019050614f746000830186614463565b614f816020830185613e0b565b614f8e6040830184614463565b949350505050565b7f6f6e6c79206f776e65722063616e2073656c6c00000000000000000000000000600082015250565b6000614fcc6013836143f7565b9150614fd782614f96565b602082019050919050565b60006020820190508181036000830152614ffb81614fbf565b9050919050565b600061500d82613da8565b915061501883613da8565b92508282039050818111156150305761502f614ee8565b5b92915050565b600060408201905061504b6000830185614463565b6150586020830184613e0b565b9392505050565b600081905092915050565b600061507582613fc4565b61507f818561505f565b935061508f818560208601613fe0565b80840191505092915050565b60006150a7828461506a565b915081905092915050565b60006150be828561506a565b91506150ca828461506a565b91508190509392505050565b7f6f6e6c792061646d696e2063616e2064656c6973740000000000000000000000600082015250565b600061510c6015836143f7565b9150615117826150d6565b602082019050919050565b6000602082019050818103600083015261513b816150ff565b9050919050565b600081519050919050565b600082825260208201905092915050565b600061516982615142565b615173818561514d565b9350615183818560208601613fe0565b61518c8161400a565b840191505092915050565b60006080820190506151ac6000830187614463565b6151b96020830186614463565b6151c66040830185613e0b565b81810360608301526151d8818461515e565b905095945050505050565b6000815190506151f281613e6f565b92915050565b60006020828403121561520e5761520d613d9e565b5b600061521c848285016151e3565b91505092915050565b7f4e487b7100000000000000000000000000000000000000000000000000000000600052601260045260246000fd5b60008190508160005260206000209050919050565b60006020601f8301049050919050565b600082821b905092915050565b6000600883026152b67fffffffffffffffffffffffffffffffffffffffffffffffffffffffffffffffff82615279565b6152c08683615279565b95508019841693508086168417925050509392505050565b6000819050919050565b60006152fd6152f86152f384613da8565b6152d8565b613da8565b9050919050565b6000819050919050565b615317836152e2565b61532b61532382615304565b848454615286565b825550505050565b600090565b615340615333565b61534b81848461530e565b505050565b5b8181101561536f57615364600082615338565b600181019050615351565b5050565b601f8211156153b45761538581615254565b61538e84615269565b8101602085101561539d578190505b6153b16153a985615269565b830182615350565b50505b505050565b600082821c905092915050565b60006153d7600019846008026153b9565b1980831691505092915050565b60006153f083836153c6565b9150826002028217905092915050565b61540982613fc4565b67ffffffffffffffff81111561542257615421614640565b5b61542c8254614e88565b615437828285615373565b600060209050601f83116001811461546a5760008415615458578287015190505b61546285826153e4565b8655506154ca565b601f19841661547886615254565b60005b828110156154a05784890151825560018201915060208501945060208101905061547b565b868310156154bd57848901516154b9601f8916826153c6565b8355505b6001600288020188555050505b505050505050565b7f4e487b7100000000000000000000000000000000000000000000000000000000600052603160045260246000fdfea264697066735822122092b92c2974348eaff10ef4563eeaa218c31476bb519e07ca94732ddb1510e88364736f6c63430008140033",
  "linkReferences": {},
  "deployedLinkReferences": {}
}