{
  "_format": "hh-sol-artifact-1",
  "contractName": "Tickets",
  "sourceName": "contracts/Tickets.sol",
  "abi": [
    {
      "inputs": [],
      "stateMutability": "nonpayable",
      "type": "constructor"
    },
    {
      "inputs": [],
      "name": "ERC721EnumerableForbiddenBatchMint",
      "type": "error"
    },
    {
      "inputs": [
        {
          "internalType": "address",
          "name": "sender",
          "type": "address"
        },
        {
          "internalType": "uint256",
          "name": "tokenId",
          "type": "uint256"
        },
        {
          "internalType": "address",
          "name": "owner",
          "type": "address"
        }
      ],
      "name": "ERC721IncorrectOwner",
      "type": "error"
    },
    {
      "inputs": [
        {
          "internalType": "address",
          "name": "operator",
          "type": "address"
        },
        {
          "internalType": "uint256",
          "name": "tokenId",
          "type": "uint256"
        }
      ],
      "name": "ERC721InsufficientApproval",
      "type": "error"
    },
    {
      "inputs": [
        {
          "internalType": "address",
          "name": "approver",
          "type": "address"
        }
      ],
      "name": "ERC721InvalidApprover",
      "type": "error"
    },
    {
      "inputs": [
        {
          "internalType": "address",
          "name": "operator",
          "type": "address"
        }
      ],
      "name": "ERC721InvalidOperator",
      "type": "error"
    },
    {
      "inputs": [
        {
          "internalType": "address",
          "name": "owner",
          "type": "address"
        }
      ],
      "name": "ERC721InvalidOwner",
      "type": "error"
    },
    {
      "inputs": [
        {
          "internalType": "address",
          "name": "receiver",
          "type": "address"
        }
      ],
      "name": "ERC721InvalidReceiver",
      "type": "error"
    },
    {
      "inputs": [
        {
          "internalType": "address",
          "name": "sender",
          "type": "address"
        }
      ],
      "name": "ERC721InvalidSender",
      "type": "error"
    },
    {
      "inputs": [
        {
          "internalType": "uint256",
          "name": "tokenId",
          "type": "uint256"
        }
      ],
      "name": "ERC721NonexistentToken",
      "type": "error"
    },
    {
      "inputs": [
        {
          "internalType": "address",
          "name": "owner",
          "type": "address"
        },
        {
          "internalType": "uint256",
          "name": "index",
          "type": "uint256"
        }
      ],
      "name": "ERC721OutOfBoundsIndex",
      "type": "error"
    },
    {
      "anonymous": false,
      "inputs": [
        {
          "indexed": true,
          "internalType": "address",
          "name": "owner",
          "type": "address"
        },
        {
          "indexed": true,
          "internalType": "address",
          "name": "approved",
          "type": "address"
        },
        {
          "indexed": true,
          "internalType": "uint256",
          "name": "tokenId",
          "type": "uint256"
        }
      ],
      "name": "Approval",
      "type": "event"
    },
    {
      "anonymous": false,
      "inputs": [
        {
          "indexed": true,
          "internalType": "address",
          "name": "owner",
          "type": "address"
        },
        {
          "indexed": true,
          "internalType": "address",
          "name": "operator",
          "type": "address"
        },
        {
          "indexed": false,
          "internalType": "bool",
          "name": "approved",
          "type": "bool"
        }
      ],
      "name": "ApprovalForAll",
      "type": "event"
    },
    {
      "anonymous": false,
      "inputs": [
        {
          "indexed": true,
          "internalType": "address",
          "name": "from",
          "type": "address"
        },
        {
          "indexed": true,
          "internalType": "address",
          "name": "to",
          "type": "address"
        },
        {
          "indexed": true,
          "internalType": "uint256",
          "name": "tokenId",
          "type": "uint256"
        }
      ],
      "name": "Transfer",
      "type": "event"
    },
    {
      "inputs": [
        {
          "internalType": "uint256",
          "name": "activityId",
          "type": "uint256"
        }
      ],
      "name": "ActivityEnded",
      "outputs": [],
      "stateMutability": "nonpayable",
      "type": "function"
    },
    {
      "inputs": [],
      "name": "admin",
      "outputs": [
        {
          "internalType": "address",
          "name": "",
          "type": "address"
        }
      ],
      "stateMutability": "view",
      "type": "function"
    },
    {
      "inputs": [
        {
          "internalType": "address",
          "name": "to",
          "type": "address"
        },
        {
          "internalType": "uint256",
          "name": "tokenId",
          "type": "uint256"
        }
      ],
      "name": "approve",
      "outputs": [],
      "stateMutability": "nonpayable",
      "type": "function"
    },
    {
      "inputs": [
        {
          "internalType": "address",
          "name": "owner",
          "type": "address"
        }
      ],
      "name": "balanceOf",
      "outputs": [
        {
          "internalType": "uint256",
          "name": "",
          "type": "uint256"
        }
      ],
      "stateMutability": "view",
      "type": "function"
    },
    {
      "inputs": [
        {
          "internalType": "uint256",
          "name": "tokenId",
          "type": "uint256"
        }
      ],
      "name": "delistticketsaleinfo",
      "outputs": [],
      "stateMutability": "nonpayable",
      "type": "function"
    },
    {
      "inputs": [
        {
          "internalType": "uint256",
          "name": "activityId",
          "type": "uint256"
        }
      ],
      "name": "findowners",
      "outputs": [
        {
          "components": [
            {
              "internalType": "address[]",
              "name": "players",
              "type": "address[]"
            },
            {
              "internalType": "uint256[]",
              "name": "counts",
              "type": "uint256[]"
            }
          ],
          "internalType": "struct Tickets.refundInfo",
          "name": "",
          "type": "tuple"
        }
      ],
      "stateMutability": "view",
      "type": "function"
    },
    {
      "inputs": [
        {
          "internalType": "uint256",
          "name": "activityId",
          "type": "uint256"
        },
        {
          "internalType": "string",
          "name": "choice",
          "type": "string"
        }
      ],
      "name": "findwiners",
      "outputs": [
        {
          "components": [
            {
              "internalType": "address[]",
              "name": "owners",
              "type": "address[]"
            },
            {
              "internalType": "uint256[]",
              "name": "counts",
              "type": "uint256[]"
            },
            {
              "internalType": "uint256",
              "name": "totalwintickets",
              "type": "uint256"
            }
          ],
          "internalType": "struct Tickets.winnerInfo",
          "name": "",
          "type": "tuple"
        }
      ],
      "stateMutability": "view",
      "type": "function"
    },
    {
      "inputs": [
        {
          "internalType": "uint256",
          "name": "tokenId",
          "type": "uint256"
        }
      ],
      "name": "getApproved",
      "outputs": [
        {
          "internalType": "address",
          "name": "",
          "type": "address"
        }
      ],
      "stateMutability": "view",
      "type": "function"
    },
    {
      "inputs": [
        {
          "internalType": "uint256",
          "name": "tokenId",
          "type": "uint256"
        }
      ],
      "name": "getTicketPrice",
      "outputs": [
        {
          "internalType": "uint256",
          "name": "",
          "type": "uint256"
        }
      ],
      "stateMutability": "view",
      "type": "function"
    },
    {
      "inputs": [
        {
          "internalType": "address",
          "name": "user",
          "type": "address"
        }
      ],
      "name": "getUserTicketCount",
      "outputs": [
        {
          "internalType": "uint256",
          "name": "",
          "type": "uint256"
        }
      ],
      "stateMutability": "view",
      "type": "function"
    },
    {
      "inputs": [
        {
          "internalType": "address",
          "name": "user",
          "type": "address"
        }
      ],
      "name": "getUserTickets",
      "outputs": [
        {
          "components": [
            {
              "internalType": "uint256",
              "name": "totalTickets",
              "type": "uint256"
            },
            {
              "components": [
                {
                  "internalType": "uint256",
                  "name": "tokenId",
                  "type": "uint256"
                },
                {
                  "internalType": "uint256",
                  "name": "activityId",
                  "type": "uint256"
                },
                {
                  "internalType": "string",
                  "name": "choice",
                  "type": "string"
                },
                {
                  "internalType": "uint256",
                  "name": "timestamp",
                  "type": "uint256"
                },
                {
                  "internalType": "enum Tickets.TicketStatus",
                  "name": "status",
                  "type": "uint8"
                }
              ],
              "internalType": "struct Tickets.UserTicketDetails[]",
              "name": "ticketDetails",
              "type": "tuple[]"
            },
            {
              "components": [
                {
                  "internalType": "uint256",
                  "name": "tokenId",
                  "type": "uint256"
                },
                {
                  "internalType": "uint256",
                  "name": "value",
                  "type": "uint256"
                }
              ],
              "internalType": "struct Tickets.TicketSaleInfo[]",
              "name": "ticketSaleDetails",
              "type": "tuple[]"
            },
            {
              "internalType": "uint256[]",
              "name": "ticketIds",
              "type": "uint256[]"
            }
          ],
          "internalType": "struct Tickets.UserCompleteInfo",
          "name": "",
          "type": "tuple"
        }
      ],
      "stateMutability": "view",
      "type": "function"
    },
    {
      "inputs": [
        {
          "internalType": "address",
          "name": "user",
          "type": "address"
        },
        {
          "internalType": "uint256",
          "name": "activityId",
          "type": "uint256"
        }
      ],
      "name": "getUserTicketsByActivity",
      "outputs": [
        {
          "components": [
            {
              "internalType": "uint256",
              "name": "tokenId",
              "type": "uint256"
            },
            {
              "internalType": "uint256",
              "name": "activityId",
              "type": "uint256"
            },
            {
              "internalType": "string",
              "name": "choice",
              "type": "string"
            },
            {
              "internalType": "uint256",
              "name": "timestamp",
              "type": "uint256"
            },
            {
              "internalType": "enum Tickets.TicketStatus",
              "name": "status",
              "type": "uint8"
            }
          ],
          "internalType": "struct Tickets.UserTicketDetails[]",
          "name": "",
          "type": "tuple[]"
        }
      ],
      "stateMutability": "view",
      "type": "function"
    },
    {
      "inputs": [],
      "name": "getallticketsonsale",
      "outputs": [
        {
          "internalType": "uint256[]",
          "name": "",
          "type": "uint256[]"
        }
      ],
      "stateMutability": "view",
      "type": "function"
    },
    {
      "inputs": [],
      "name": "getallticketsonsaleReturninfo",
      "outputs": [
        {
          "components": [
            {
              "internalType": "uint256",
              "name": "tokenId",
              "type": "uint256"
            },
            {
              "internalType": "uint256",
              "name": "value",
              "type": "uint256"
            },
            {
              "internalType": "address",
              "name": "seller",
              "type": "address"
            },
            {
              "internalType": "uint256",
              "name": "activityId",
              "type": "uint256"
            },
            {
              "internalType": "string",
              "name": "choice",
              "type": "string"
            }
          ],
          "internalType": "struct Tickets.TicketSaleReturninfo[]",
          "name": "",
          "type": "tuple[]"
        }
      ],
      "stateMutability": "view",
      "type": "function"
    },
    {
      "inputs": [
        {
          "internalType": "address",
          "name": "owner",
          "type": "address"
        },
        {
          "internalType": "address",
          "name": "operator",
          "type": "address"
        }
      ],
      "name": "isApprovedForAll",
      "outputs": [
        {
          "internalType": "bool",
          "name": "",
          "type": "bool"
        }
      ],
      "stateMutability": "view",
      "type": "function"
    },
    {
      "inputs": [
        {
          "internalType": "address",
          "name": "to",
          "type": "address"
        },
        {
          "internalType": "uint256",
          "name": "activityId",
          "type": "uint256"
        },
        {
          "internalType": "string",
          "name": "choice",
          "type": "string"
        },
        {
          "internalType": "uint256",
          "name": "number",
          "type": "uint256"
        }
      ],
      "name": "mintTicket",
      "outputs": [],
      "stateMutability": "nonpayable",
      "type": "function"
    },
    {
      "inputs": [],
      "name": "name",
      "outputs": [
        {
          "internalType": "string",
          "name": "",
          "type": "string"
        }
      ],
      "stateMutability": "view",
      "type": "function"
    },
    {
      "inputs": [],
      "name": "nextTicketId",
      "outputs": [
        {
          "internalType": "uint256",
          "name": "",
          "type": "uint256"
        }
      ],
      "stateMutability": "view",
      "type": "function"
    },
    {
      "inputs": [
        {
          "internalType": "uint256",
          "name": "tokenId",
          "type": "uint256"
        }
      ],
      "name": "ownerOf",
      "outputs": [
        {
          "internalType": "address",
          "name": "",
          "type": "address"
        }
      ],
      "stateMutability": "view",
      "type": "function"
    },
    {
      "inputs": [
        {
          "internalType": "address",
          "name": "from",
          "type": "address"
        },
        {
          "internalType": "address",
          "name": "to",
          "type": "address"
        },
        {
          "internalType": "uint256",
          "name": "tokenId",
          "type": "uint256"
        }
      ],
      "name": "safeTransferFrom",
      "outputs": [],
      "stateMutability": "nonpayable",
      "type": "function"
    },
    {
      "inputs": [
        {
          "internalType": "address",
          "name": "from",
          "type": "address"
        },
        {
          "internalType": "address",
          "name": "to",
          "type": "address"
        },
        {
          "internalType": "uint256",
          "name": "tokenId",
          "type": "uint256"
        },
        {
          "internalType": "bytes",
          "name": "data",
          "type": "bytes"
        }
      ],
      "name": "safeTransferFrom",
      "outputs": [],
      "stateMutability": "nonpayable",
      "type": "function"
    },
    {
      "inputs": [
        {
          "internalType": "uint256",
          "name": "tokenId",
          "type": "uint256"
        },
        {
          "internalType": "uint256",
          "name": "price",
          "type": "uint256"
        }
      ],
      "name": "sellTicket",
      "outputs": [],
      "stateMutability": "nonpayable",
      "type": "function"
    },
    {
      "inputs": [
        {
          "internalType": "address",
          "name": "operator",
          "type": "address"
        },
        {
          "internalType": "bool",
          "name": "approved",
          "type": "bool"
        }
      ],
      "name": "setApprovalForAll",
      "outputs": [],
      "stateMutability": "nonpayable",
      "type": "function"
    },
    {
      "inputs": [
        {
          "internalType": "bytes4",
          "name": "interfaceId",
          "type": "bytes4"
        }
      ],
      "name": "supportsInterface",
      "outputs": [
        {
          "internalType": "bool",
          "name": "",
          "type": "bool"
        }
      ],
      "stateMutability": "view",
      "type": "function"
    },
    {
      "inputs": [],
      "name": "symbol",
      "outputs": [
        {
          "internalType": "string",
          "name": "",
          "type": "string"
        }
      ],
      "stateMutability": "view",
      "type": "function"
    },
    {
      "inputs": [
        {
          "internalType": "uint256",
          "name": "",
          "type": "uint256"
        }
      ],
      "name": "ticketInfo",
      "outputs": [
        {
          "internalType": "uint256",
          "name": "activityId",
          "type": "uint256"
        },
        {
          "internalType": "string",
          "name": "choice",
          "type": "string"
        },
        {
          "internalType": "uint256",
          "name": "timestamp",
          "type": "uint256"
        },
        {
          "internalType": "enum Tickets.TicketStatus",
          "name": "status",
          "type": "uint8"
        }
      ],
      "stateMutability": "view",
      "type": "function"
    },
    {
      "inputs": [
        {
          "internalType": "uint256",
          "name": "",
          "type": "uint256"
        },
        {
          "internalType": "uint256",
          "name": "",
          "type": "uint256"
        }
      ],
      "name": "ticketsByActivity",
      "outputs": [
        {
          "internalType": "uint256",
          "name": "",
          "type": "uint256"
        }
      ],
      "stateMutability": "view",
      "type": "function"
    },
    {
      "inputs": [
        {
          "internalType": "uint256",
          "name": "",
          "type": "uint256"
        },
        {
          "internalType": "string",
          "name": "",
          "type": "string"
        },
        {
          "internalType": "uint256",
          "name": "",
          "type": "uint256"
        }
      ],
      "name": "ticketsByActivityAndChoice",
      "outputs": [
        {
          "internalType": "uint256",
          "name": "",
          "type": "uint256"
        }
      ],
      "stateMutability": "view",
      "type": "function"
    },
    {
      "inputs": [
        {
          "internalType": "uint256",
          "name": "",
          "type": "uint256"
        }
      ],
      "name": "ticketsaleinfo",
      "outputs": [
        {
          "internalType": "uint256",
          "name": "tokenId",
          "type": "uint256"
        },
        {
          "internalType": "uint256",
          "name": "value",
          "type": "uint256"
        }
      ],
      "stateMutability": "view",
      "type": "function"
    },
    {
      "inputs": [
        {
          "internalType": "address",
          "name": "to",
          "type": "address"
        },
        {
          "internalType": "uint256",
          "name": "tokenId",
          "type": "uint256"
        }
      ],
      "name": "tickettransfer",
      "outputs": [],
      "stateMutability": "nonpayable",
      "type": "function"
    },
    {
      "inputs": [
        {
          "internalType": "uint256",
          "name": "index",
          "type": "uint256"
        }
      ],
      "name": "tokenByIndex",
      "outputs": [
        {
          "internalType": "uint256",
          "name": "",
          "type": "uint256"
        }
      ],
      "stateMutability": "view",
      "type": "function"
    },
    {
      "inputs": [
        {
          "internalType": "address",
          "name": "owner",
          "type": "address"
        },
        {
          "internalType": "uint256",
          "name": "index",
          "type": "uint256"
        }
      ],
      "name": "tokenOfOwnerByIndex",
      "outputs": [
        {
          "internalType": "uint256",
          "name": "",
          "type": "uint256"
        }
      ],
      "stateMutability": "view",
      "type": "function"
    },
    {
      "inputs": [
        {
          "internalType": "uint256",
          "name": "tokenId",
          "type": "uint256"
        }
      ],
      "name": "tokenURI",
      "outputs": [
        {
          "internalType": "string",
          "name": "",
          "type": "string"
        }
      ],
      "stateMutability": "view",
      "type": "function"
    },
    {
      "inputs": [],
      "name": "totalSupply",
      "outputs": [
        {
          "internalType": "uint256",
          "name": "",
          "type": "uint256"
        }
      ],
      "stateMutability": "view",
      "type": "function"
    },
    {
      "inputs": [
        {
          "internalType": "address",
          "name": "from",
          "type": "address"
        },
        {
          "internalType": "address",
          "name": "to",
          "type": "address"
        },
        {
          "internalType": "uint256",
          "name": "tokenId",
          "type": "uint256"
        }
      ],
      "name": "transferFrom",
      "outputs": [],
      "stateMutability": "nonpayable",
      "type": "function"
    }
  ],
  "bytecode": "0x60806040523480156200001157600080fd5b506040518060400160405280600781526020017f5469636b657473000000000000000000000000000000000000000000000000008152506040518060400160405280600381526020017f544958000000000000000000000000000000000000000000000000000000000081525081600090816200008f919062000365565b508060019081620000a1919062000365565b50505033600b60006101000a81548173ffffffffffffffffffffffffffffffffffffffff021916908373ffffffffffffffffffffffffffffffffffffffff1602179055506200044c565b600081519050919050565b7f4e487b7100000000000000000000000000000000000000000000000000000000600052604160045260246000fd5b7f4e487b7100000000000000000000000000000000000000000000000000000000600052602260045260246000fd5b600060028204905060018216806200016d57607f821691505b60208210810362000183576200018262000125565b5b50919050565b60008190508160005260206000209050919050565b60006020601f8301049050919050565b600082821b905092915050565b600060088302620001ed7fffffffffffffffffffffffffffffffffffffffffffffffffffffffffffffffff82620001ae565b620001f98683620001ae565b95508019841693508086168417925050509392505050565b6000819050919050565b6000819050919050565b600062000246620002406200023a8462000211565b6200021b565b62000211565b9050919050565b6000819050919050565b620002628362000225565b6200027a62000271826200024d565b848454620001bb565b825550505050565b600090565b6200029162000282565b6200029e81848462000257565b505050565b5b81811015620002c657620002ba60008262000287565b600181019050620002a4565b5050565b601f8211156200031557620002df8162000189565b620002ea846200019e565b81016020851015620002fa578190505b6200031262000309856200019e565b830182620002a3565b50505b505050565b600082821c905092915050565b60006200033a600019846008026200031a565b1980831691505092915050565b600062000355838362000327565b9150826002028217905092915050565b6200037082620000eb565b67ffffffffffffffff8111156200038c576200038b620000f6565b5b62000398825462000154565b620003a5828285620002ca565b600060209050601f831160018114620003dd5760008415620003c8578287015190505b620003d4858262000347565b86555062000444565b601f198416620003ed8662000189565b60005b828110156200041757848901518255600182019150602085019450602081019050620003f0565b8683101562000437578489015162000433601f89168262000327565b8355505b6001600288020188555050505b505050505050565b61545a806200045c6000396000f3fe608060405234801561001057600080fd5b50600436106102115760003560e01c80636352211e11610125578063c87b56dd116100ad578063e985e9c51161007c578063e985e9c514610697578063efb2d513146106c7578063f06fc961146106e3578063f851a44014610713578063fa7130831461073157610211565b8063c87b56dd146105eb578063cc68c0831461061b578063d42c29bd14610637578063db5bd0181461066757610211565b8063854eb2a9116100f4578063854eb2a91461054757806395d89b4114610565578063963ef2a214610583578063a22cb465146105b3578063b88d4fde146105cf57610211565b80636352211e1461049b57806370a08231146104cb57806382036a82146104fb578063831635241461052b57610211565b80630f078350116101a85780632f745c59116101775780632f745c59146103d15780633a6afbf61461040157806342842e0e146104315780634f6ccce71461044d5780636031a52f1461047d57610211565b80630f0783501461034b57806318160ddd1461037b57806323b872dd146103995780632a6c4c14146103b557610211565b806306fdde03116101e457806306fdde03146102c3578063081812fc146102e1578063095ea7b3146103115780630dc8251b1461032d57610211565b806301fe4af51461021657806301ffc9a7146102475780630484a22f146102775780630536897e146102a7575b600080fd5b610230600480360381019061022b9190613d01565b610764565b60405161023e929190613d3d565b60405180910390f35b610261600480360381019061025c9190613dbe565b610788565b60405161026e9190613e06565b60405180910390f35b610291600480360381019061028c9190613e7f565b610802565b60405161029e91906142f8565b60405180910390f35b6102c160048036038101906102bc9190613d01565b610b68565b005b6102cb610cb4565b6040516102d89190614364565b60405180910390f35b6102fb60048036038101906102f69190613d01565b610d46565b6040516103089190614395565b60405180910390f35b61032b600480360381019061032691906143b0565b610d62565b005b610335610d78565b6040516103429190614537565b60405180910390f35b6103656004803603810190610360919061468e565b610fd1565b60405161037291906146fd565b60405180910390f35b610383611025565b60405161039091906146fd565b60405180910390f35b6103b360048036038101906103ae9190614718565b611032565b005b6103cf60048036038101906103ca919061476b565b611134565b005b6103eb60048036038101906103e691906143b0565b611255565b6040516103f891906146fd565b60405180910390f35b61041b600480360381019061041691906143b0565b6112fe565b6040516104289190614831565b60405180910390f35b61044b60048036038101906104469190614718565b6115d6565b005b61046760048036038101906104629190613d01565b6115f6565b60405161047491906146fd565b60405180910390f35b61048561166c565b60405161049291906146fd565b60405180910390f35b6104b560048036038101906104b09190613d01565b611672565b6040516104c29190614395565b60405180910390f35b6104e560048036038101906104e09190613e7f565b611684565b6040516104f291906146fd565b60405180910390f35b61051560048036038101906105109190614853565b61173e565b60405161052291906149b5565b60405180910390f35b61054560048036038101906105409190613d01565b611c18565b005b61054f611d4e565b60405161055c9190614a46565b60405180910390f35b61056d611da6565b60405161057a9190614364565b60405180910390f35b61059d60048036038101906105989190613e7f565b611e38565b6040516105aa91906146fd565b60405180910390f35b6105cd60048036038101906105c89190614a94565b611e4a565b005b6105e960048036038101906105e49190614b75565b611e60565b005b61060560048036038101906106009190613d01565b611e7d565b6040516106129190614364565b60405180910390f35b61063560048036038101906106309190614bf8565b611ee6565b005b610651600480360381019061064c9190613d01565b611f16565b60405161065e9190614cbf565b60405180910390f35b610681600480360381019061067c919061476b565b6123c5565b60405161068e91906146fd565b60405180910390f35b6106b160048036038101906106ac9190614ce1565b6123f6565b6040516106be9190613e06565b60405180910390f35b6106e160048036038101906106dc91906143b0565b61248a565b005b6106fd60048036038101906106f89190613d01565b612506565b60405161070a91906146fd565b60405180910390f35b61071b612526565b6040516107289190614395565b60405180910390f35b61074b60048036038101906107469190613d01565b61254c565b60405161075b9493929190614d30565b60405180910390f35b600c6020528060005260406000206000915090508060000154908060010154905082565b60007f780e9d63000000000000000000000000000000000000000000000000000000007bffffffffffffffffffffffffffffffffffffffffffffffffffffffff1916827bffffffffffffffffffffffffffffffffffffffffffffffffffffffff191614806107fb57506107fa82612611565b5b9050919050565b61080a613bb4565b600061081583611684565b905060008167ffffffffffffffff81111561083357610832614563565b5b60405190808252806020026020018201604052801561086c57816020015b610859613bdc565b8152602001906001900390816108515790505b50905060008267ffffffffffffffff81111561088b5761088a614563565b5b6040519080825280602002602001820160405280156108b95781602001602082028036833780820191505090505b50905060008367ffffffffffffffff8111156108d8576108d7614563565b5b60405190808252806020026020018201604052801561091157816020015b6108fe613c1d565b8152602001906001900390816108f65790505b5090506000805b85811015610b3a57600061092c8983611255565b90506000600e60008381526020019081526020016000206040518060800160405290816000820154815260200160018201805461096890614dab565b80601f016020809104026020016040519081016040528092919081815260200182805461099490614dab565b80156109e15780601f106109b6576101008083540402835291602001916109e1565b820191906000526020600020905b8154815290600101906020018083116109c457829003601f168201915b50505050508152602001600282015481526020016003820160009054906101000a900460ff166002811115610a1957610a18613f77565b5b6002811115610a2b57610a2a613f77565b5b8152505090506040518060a0016040528083815260200182600001518152602001826020015181526020018260400151815260200182606001516002811115610a7757610a76613f77565b5b815250878481518110610a8d57610a8c614ddc565b5b6020026020010181905250610aa1826126f3565b15610b0557600c600083815260200190815260200160002060405180604001604052908160008201548152602001600182015481525050858581518110610aeb57610aea614ddc565b5b60200260200101819052508380610b0190614e3a565b9450505b81868481518110610b1957610b18614ddc565b5b60200260200101818152505050508080610b3290614e3a565b915050610918565b5060405180608001604052808681526020018581526020018381526020018481525095505050505050919050565b600060106000838152602001908152602001600020805480602002602001604051908101604052809291908181526020018280548015610bc757602002820191906000526020600020905b815481526020019060010190808311610bb3575b5050505050905060005b8151811015610caf57610bfd828281518110610bf057610bef614ddc565b5b60200260200101516126f3565b15610c4357600c6000838381518110610c1957610c18614ddc565b5b60200260200101518152602001908152602001600020600080820160009055600182016000905550505b6000600e6000848481518110610c5c57610c5b614ddc565b5b6020026020010151815260200190815260200160002060030160006101000a81548160ff02191690836002811115610c9757610c96613f77565b5b02179055508080610ca790614e3a565b915050610bd1565b505050565b606060008054610cc390614dab565b80601f0160208091040260200160405190810160405280929190818152602001828054610cef90614dab565b8015610d3c5780601f10610d1157610100808354040283529160200191610d3c565b820191906000526020600020905b815481529060010190602001808311610d1f57829003601f168201915b5050505050905090565b6000610d5182612746565b50610d5b826127ce565b9050919050565b610d748282610d6f61280b565b612813565b5050565b60606000600d80549050905060008167ffffffffffffffff811115610da057610d9f614563565b5b604051908082528060200260200182016040528015610dd957816020015b610dc6613c37565b815260200190600190039081610dbe5790505b50905060005b82811015610fc8576000600d8281548110610dfd57610dfc614ddc565b5b906000526020600020015490506000600e600083815260200190815260200160002060405180608001604052908160008201548152602001600182018054610e4490614dab565b80601f0160208091040260200160405190810160405280929190818152602001828054610e7090614dab565b8015610ebd5780601f10610e9257610100808354040283529160200191610ebd565b820191906000526020600020905b815481529060010190602001808311610ea057829003601f168201915b50505050508152602001600282015481526020016003820160009054906101000a900460ff166002811115610ef557610ef4613f77565b5b6002811115610f0757610f06613f77565b5b8152505090506000600c60008481526020019081526020016000206040518060400160405290816000820154815260200160018201548152505090506040518060a0016040528084815260200182602001518152602001610f6785611672565b73ffffffffffffffffffffffffffffffffffffffff168152602001836000015181526020018360200151815250858581518110610fa757610fa6614ddc565b5b60200260200101819052505050508080610fc090614e3a565b915050610ddf565b50809250505090565b600f60205282600052604060002082805160208101820180518482526020830160208501208183528095505050505050818154811061100f57600080fd5b9060005260206000200160009250925050505481565b6000600880549050905090565b600073ffffffffffffffffffffffffffffffffffffffff168273ffffffffffffffffffffffffffffffffffffffff16036110a45760006040517f64a0ae9200000000000000000000000000000000000000000000000000000000815260040161109b9190614395565b60405180910390fd5b60006110b883836110b361280b565b612825565b90508373ffffffffffffffffffffffffffffffffffffffff168173ffffffffffffffffffffffffffffffffffffffff161461112e578382826040517f64283d7b00000000000000000000000000000000000000000000000000000000815260040161112593929190614e82565b60405180910390fd5b50505050565b61113d82611672565b73ffffffffffffffffffffffffffffffffffffffff163373ffffffffffffffffffffffffffffffffffffffff16146111aa576040517f08c379a00000000000000000000000000000000000000000000000000000000081526004016111a190614f05565b60405180910390fd5b604051806040016040528083815260200182815250600c600084815260200190815260200160002060008201518160000155602082015181600101559050506002600e600084815260200190815260200160002060030160006101000a81548160ff0219169083600281111561122357611222613f77565b5b0217905550600d8290806001815401808255809150506001900390600052602060002001600090919091909150555050565b600061126083611684565b82106112a55782826040517fa57d13dc00000000000000000000000000000000000000000000000000000000815260040161129c929190614f25565b60405180910390fd5b600660008473ffffffffffffffffffffffffffffffffffffffff1673ffffffffffffffffffffffffffffffffffffffff168152602001908152602001600020600083815260200190815260200160002054905092915050565b6060600061130b84611684565b905060008167ffffffffffffffff81111561132957611328614563565b5b60405190808252806020026020018201604052801561136257816020015b61134f613bdc565b8152602001906001900390816113475790505b5090506000805b8381101561151857600061137d8883611255565b90506000600e6000838152602001908152602001600020604051806080016040529081600082015481526020016001820180546113b990614dab565b80601f01602080910402602001604051908101604052809291908181526020018280546113e590614dab565b80156114325780601f1061140757610100808354040283529160200191611432565b820191906000526020600020905b81548152906001019060200180831161141557829003601f168201915b50505050508152602001600282015481526020016003820160009054906101000a900460ff16600281111561146a57611469613f77565b5b600281111561147c5761147b613f77565b5b81525050905087816000015103611503576040518060a00160405280838152602001826000015181526020018260200151815260200182604001518152602001826060015160028111156114d3576114d2613f77565b5b8152508585815181106114e9576114e8614ddc565b5b602002602001018190525083806114ff90614e3a565b9450505b5050808061151090614e3a565b915050611369565b5060008167ffffffffffffffff81111561153557611534614563565b5b60405190808252806020026020018201604052801561156e57816020015b61155b613bdc565b8152602001906001900390816115535790505b50905060005b828110156115c85783818151811061158f5761158e614ddc565b5b60200260200101518282815181106115aa576115a9614ddc565b5b602002602001018190525080806115c090614e3a565b915050611574565b508094505050505092915050565b6115f183838360405180602001604052806000815250611e60565b505050565b6000611600611025565b8210611646576000826040517fa57d13dc00000000000000000000000000000000000000000000000000000000815260040161163d929190614f25565b60405180910390fd5b6008828154811061165a57611659614ddc565b5b90600052602060002001549050919050565b600a5481565b600061167d82612746565b9050919050565b60008073ffffffffffffffffffffffffffffffffffffffff168273ffffffffffffffffffffffffffffffffffffffff16036116f75760006040517f89c62b640000000000000000000000000000000000000000000000000000000081526004016116ee9190614395565b60405180910390fd5b600360008373ffffffffffffffffffffffffffffffffffffffff1673ffffffffffffffffffffffffffffffffffffffff168152602001908152602001600020549050919050565b611746613c7c565b6000600f6000858152602001908152602001600020836040516117699190614f8a565b90815260200160405180910390208054806020026020016040519081016040528092919081815260200182805480156117c157602002820191906000526020600020905b8154815260200190600101908083116117ad575b505050505090506000815103611887576040518060600160405280600067ffffffffffffffff8111156117f7576117f6614563565b5b6040519080825280602002602001820160405280156118255781602001602082028036833780820191505090505b508152602001600067ffffffffffffffff81111561184657611845614563565b5b6040519080825280602002602001820160405280156118745781602001602082028036833780820191505090505b5081526020016000815250915050611c12565b6000815167ffffffffffffffff8111156118a4576118a3614563565b5b6040519080825280602002602001820160405280156118d25781602001602082028036833780820191505090505b5090506000825167ffffffffffffffff8111156118f2576118f1614563565b5b6040519080825280602002602001820160405280156119205781602001602082028036833780820191505090505b5090506000805b8451811015611a9157600061195586838151811061194857611947614ddc565b5b6020026020010151611672565b90506000805b848110156119f8578273ffffffffffffffffffffffffffffffffffffffff1687828151811061198d5761198c614ddc565b5b602002602001015173ffffffffffffffffffffffffffffffffffffffff16036119e5578581815181106119c3576119c2614ddc565b5b6020026020010180518091906119d890614e3a565b81525050600191506119f8565b80806119f090614e3a565b91505061195b565b5080611a7c5781868581518110611a1257611a11614ddc565b5b602002602001019073ffffffffffffffffffffffffffffffffffffffff16908173ffffffffffffffffffffffffffffffffffffffff16815250506001858581518110611a6157611a60614ddc565b5b6020026020010181815250508380611a7890614e3a565b9450505b50508080611a8990614e3a565b915050611927565b5060008167ffffffffffffffff811115611aae57611aad614563565b5b604051908082528060200260200182016040528015611adc5781602001602082028036833780820191505090505b50905060008267ffffffffffffffff811115611afb57611afa614563565b5b604051908082528060200260200182016040528015611b295781602001602082028036833780820191505090505b50905060005b83811015611bec57858181518110611b4a57611b49614ddc565b5b6020026020010151838281518110611b6557611b64614ddc565b5b602002602001019073ffffffffffffffffffffffffffffffffffffffff16908173ffffffffffffffffffffffffffffffffffffffff1681525050848181518110611bb257611bb1614ddc565b5b6020026020010151828281518110611bcd57611bcc614ddc565b5b6020026020010181815250508080611be490614e3a565b915050611b2f565b506040518060600160405280838152602001828152602001875181525096505050505050505b92915050565b600b60009054906101000a900473ffffffffffffffffffffffffffffffffffffffff1673ffffffffffffffffffffffffffffffffffffffff163373ffffffffffffffffffffffffffffffffffffffff161480611ca75750611c7881611672565b73ffffffffffffffffffffffffffffffffffffffff163373ffffffffffffffffffffffffffffffffffffffff16145b611ce6576040517f08c379a0000000000000000000000000000000000000000000000000000000008152600401611cdd90614fed565b60405180910390fd5b6001600e600083815260200190815260200160002060030160006101000a81548160ff02191690836002811115611d2057611d1f613f77565b5b0217905550600c60008281526020019081526020016000206000808201600090556001820160009055505050565b6060600d805480602002602001604051908101604052809291908181526020018280548015611d9c57602002820191906000526020600020905b815481526020019060010190808311611d88575b5050505050905090565b606060018054611db590614dab565b80601f0160208091040260200160405190810160405280929190818152602001828054611de190614dab565b8015611e2e5780601f10611e0357610100808354040283529160200191611e2e565b820191906000526020600020905b815481529060010190602001808311611e1157829003601f168201915b5050505050905090565b6000611e4382611684565b9050919050565b611e5c611e5561280b565b8383612942565b5050565b611e6b848484611032565b611e7784848484612ab1565b50505050565b6060611e8882612746565b506000611e93612c68565b90506000815111611eb35760405180602001604052806000815250611ede565b80611ebd84612c7f565b604051602001611ece92919061500d565b6040516020818303038152906040525b915050919050565b60005b81811015611f0f57611efc858585612d4d565b8080611f0790614e3a565b915050611ee9565b5050505050565b611f1e613c9d565b600060106000848152602001908152602001600020805480602002602001604051908101604052809291908181526020018280548015611f7d57602002820191906000526020600020905b815481526020019060010190808311611f69575b50505050509050600081510361203c576040518060400160405280600067ffffffffffffffff811115611fb357611fb2614563565b5b604051908082528060200260200182016040528015611fe15781602001602082028036833780820191505090505b508152602001600067ffffffffffffffff81111561200257612001614563565b5b6040519080825280602002602001820160405280156120305781602001602082028036833780820191505090505b508152509150506123c0565b6000815167ffffffffffffffff81111561205957612058614563565b5b6040519080825280602002602001820160405280156120875781602001602082028036833780820191505090505b5090506000825167ffffffffffffffff8111156120a7576120a6614563565b5b6040519080825280602002602001820160405280156120d55781602001602082028036833780820191505090505b5090506000805b845181101561224657600061210a8683815181106120fd576120fc614ddc565b5b6020026020010151611672565b90506000805b848110156121ad578273ffffffffffffffffffffffffffffffffffffffff1687828151811061214257612141614ddc565b5b602002602001015173ffffffffffffffffffffffffffffffffffffffff160361219a5785818151811061217857612177614ddc565b5b60200260200101805180919061218d90614e3a565b81525050600191506121ad565b80806121a590614e3a565b915050612110565b508061223157818685815181106121c7576121c6614ddc565b5b602002602001019073ffffffffffffffffffffffffffffffffffffffff16908173ffffffffffffffffffffffffffffffffffffffff1681525050600185858151811061221657612215614ddc565b5b602002602001018181525050838061222d90614e3a565b9450505b5050808061223e90614e3a565b9150506120dc565b5060008167ffffffffffffffff81111561226357612262614563565b5b6040519080825280602002602001820160405280156122915781602001602082028036833780820191505090505b50905060008267ffffffffffffffff8111156122b0576122af614563565b5b6040519080825280602002602001820160405280156122de5781602001602082028036833780820191505090505b50905060005b838110156123a1578581815181106122ff576122fe614ddc565b5b602002602001015183828151811061231a57612319614ddc565b5b602002602001019073ffffffffffffffffffffffffffffffffffffffff16908173ffffffffffffffffffffffffffffffffffffffff168152505084818151811061236757612366614ddc565b5b602002602001015182828151811061238257612381614ddc565b5b602002602001018181525050808061239990614e3a565b9150506122e4565b5060405180604001604052808381526020018281525096505050505050505b919050565b601060205281600052604060002081815481106123e157600080fd5b90600052602060002001600091509150505481565b6000600560008473ffffffffffffffffffffffffffffffffffffffff1673ffffffffffffffffffffffffffffffffffffffff16815260200190815260200160002060008373ffffffffffffffffffffffffffffffffffffffff1673ffffffffffffffffffffffffffffffffffffffff16815260200190815260200160002060009054906101000a900460ff16905092915050565b61249d61249682611672565b8383612eb0565b6001600e600083815260200190815260200160002060030160006101000a81548160ff021916908360028111156124d7576124d6613f77565b5b0217905550600c6000828152602001908152602001600020600080820160009055600182016000905550505050565b6000600c6000838152602001908152602001600020600101549050919050565b600b60009054906101000a900473ffffffffffffffffffffffffffffffffffffffff1681565b600e60205280600052604060002060009150905080600001549080600101805461257590614dab565b80601f01602080910402602001604051908101604052809291908181526020018280546125a190614dab565b80156125ee5780601f106125c3576101008083540402835291602001916125ee565b820191906000526020600020905b8154815290600101906020018083116125d157829003601f168201915b5050505050908060020154908060030160009054906101000a900460ff16905084565b60007f80ac58cd000000000000000000000000000000000000000000000000000000007bffffffffffffffffffffffffffffffffffffffffffffffffffffffff1916827bffffffffffffffffffffffffffffffffffffffffffffffffffffffff191614806126dc57507f5b5e139f000000000000000000000000000000000000000000000000000000007bffffffffffffffffffffffffffffffffffffffffffffffffffffffff1916827bffffffffffffffffffffffffffffffffffffffffffffffffffffffff1916145b806126ec57506126eb8261301d565b5b9050919050565b600060028081111561270857612707613f77565b5b600e600084815260200190815260200160002060030160009054906101000a900460ff16600281111561273e5761273d613f77565b5b149050919050565b60008061275283613087565b9050600073ffffffffffffffffffffffffffffffffffffffff168173ffffffffffffffffffffffffffffffffffffffff16036127c557826040517f7e2732890000000000000000000000000000000000000000000000000000000081526004016127bc91906146fd565b60405180910390fd5b80915050919050565b60006004600083815260200190815260200160002060009054906101000a900473ffffffffffffffffffffffffffffffffffffffff169050919050565b600033905090565b61282083838360016130c4565b505050565b600080612833858585613289565b9050600073ffffffffffffffffffffffffffffffffffffffff168173ffffffffffffffffffffffffffffffffffffffff160361287757612872846134a3565b6128b6565b8473ffffffffffffffffffffffffffffffffffffffff168173ffffffffffffffffffffffffffffffffffffffff16146128b5576128b481856134ec565b5b5b600073ffffffffffffffffffffffffffffffffffffffff168573ffffffffffffffffffffffffffffffffffffffff16036128f8576128f38461364d565b612937565b8473ffffffffffffffffffffffffffffffffffffffff168173ffffffffffffffffffffffffffffffffffffffff161461293657612935858561371e565b5b5b809150509392505050565b600073ffffffffffffffffffffffffffffffffffffffff168273ffffffffffffffffffffffffffffffffffffffff16036129b357816040517f5b08ba180000000000000000000000000000000000000000000000000000000081526004016129aa9190614395565b60405180910390fd5b80600560008573ffffffffffffffffffffffffffffffffffffffff1673ffffffffffffffffffffffffffffffffffffffff16815260200190815260200160002060008473ffffffffffffffffffffffffffffffffffffffff1673ffffffffffffffffffffffffffffffffffffffff16815260200190815260200160002060006101000a81548160ff0219169083151502179055508173ffffffffffffffffffffffffffffffffffffffff168373ffffffffffffffffffffffffffffffffffffffff167f17307eab39ab6107e8899845ad3d59bd9653f200f220920489ca2b5937696c3183604051612aa49190613e06565b60405180910390a3505050565b60008373ffffffffffffffffffffffffffffffffffffffff163b1115612c62578273ffffffffffffffffffffffffffffffffffffffff1663150b7a02612af561280b565b8685856040518563ffffffff1660e01b8152600401612b179493929190615086565b6020604051808303816000875af1925050508015612b5357506040513d601f19601f82011682018060405250810190612b5091906150e7565b60015b612bd7573d8060008114612b83576040519150601f19603f3d011682016040523d82523d6000602084013e612b88565b606091505b506000815103612bcf57836040517f64a0ae92000000000000000000000000000000000000000000000000000000008152600401612bc69190614395565b60405180910390fd5b805181602001fd5b63150b7a0260e01b7bffffffffffffffffffffffffffffffffffffffffffffffffffffffff1916817bffffffffffffffffffffffffffffffffffffffffffffffffffffffff191614612c6057836040517f64a0ae92000000000000000000000000000000000000000000000000000000008152600401612c579190614395565b60405180910390fd5b505b50505050565b606060405180602001604052806000815250905090565b606060006001612c8e846137a9565b01905060008167ffffffffffffffff811115612cad57612cac614563565b5b6040519080825280601f01601f191660200182016040528015612cdf5781602001600182028036833780820191505090505b509050600082602001820190505b600115612d42578080600190039150507f3031323334353637383961626364656600000000000000000000000000000000600a86061a8153600a8581612d3657612d35615114565b5b04945060008503612ced575b819350505050919050565b6000600a549050612d5e84826138fc565b604051806080016040528084815260200183815260200142815260200160016002811115612d8f57612d8e613f77565b5b815250600e6000838152602001908152602001600020600082015181600001556020820151816001019081612dc491906152ef565b506040820151816002015560608201518160030160006101000a81548160ff02191690836002811115612dfa57612df9613f77565b5b0217905550905050600f600084815260200190815260200160002082604051612e239190614f8a565b908152602001604051809103902081908060018154018082558091505060019003906000526020600020016000909190919091505560106000848152602001908152602001600020819080600181540180825580915050600190039060005260206000200160009091909190915055600a6000815480929190612ea590614e3a565b919050555050505050565b600073ffffffffffffffffffffffffffffffffffffffff168273ffffffffffffffffffffffffffffffffffffffff1603612f225760006040517f64a0ae92000000000000000000000000000000000000000000000000000000008152600401612f199190614395565b60405180910390fd5b6000612f3083836000612825565b9050600073ffffffffffffffffffffffffffffffffffffffff168173ffffffffffffffffffffffffffffffffffffffff1603612fa357816040517f7e273289000000000000000000000000000000000000000000000000000000008152600401612f9a91906146fd565b60405180910390fd5b8373ffffffffffffffffffffffffffffffffffffffff168173ffffffffffffffffffffffffffffffffffffffff1614613017578382826040517f64283d7b00000000000000000000000000000000000000000000000000000000815260040161300e93929190614e82565b60405180910390fd5b50505050565b60007f01ffc9a7000000000000000000000000000000000000000000000000000000007bffffffffffffffffffffffffffffffffffffffffffffffffffffffff1916827bffffffffffffffffffffffffffffffffffffffffffffffffffffffff1916149050919050565b60006002600083815260200190815260200160002060009054906101000a900473ffffffffffffffffffffffffffffffffffffffff169050919050565b80806130fd5750600073ffffffffffffffffffffffffffffffffffffffff168273ffffffffffffffffffffffffffffffffffffffff1614155b1561323157600061310d84612746565b9050600073ffffffffffffffffffffffffffffffffffffffff168373ffffffffffffffffffffffffffffffffffffffff161415801561317857508273ffffffffffffffffffffffffffffffffffffffff168173ffffffffffffffffffffffffffffffffffffffff1614155b801561318b575061318981846123f6565b155b156131cd57826040517fa9fbf51f0000000000000000000000000000000000000000000000000000000081526004016131c49190614395565b60405180910390fd5b811561322f57838573ffffffffffffffffffffffffffffffffffffffff168273ffffffffffffffffffffffffffffffffffffffff167f8c5be1e5ebec7d5bd14f71427d1e84f3dd0314c0f7b2291e5b200ac8c7c3b92560405160405180910390a45b505b836004600085815260200190815260200160002060006101000a81548173ffffffffffffffffffffffffffffffffffffffff021916908373ffffffffffffffffffffffffffffffffffffffff16021790555050505050565b60008061329584613087565b9050600073ffffffffffffffffffffffffffffffffffffffff168373ffffffffffffffffffffffffffffffffffffffff16146132d7576132d681848661391a565b5b600073ffffffffffffffffffffffffffffffffffffffff168173ffffffffffffffffffffffffffffffffffffffff1614613368576133196000856000806130c4565b6001600360008373ffffffffffffffffffffffffffffffffffffffff1673ffffffffffffffffffffffffffffffffffffffff168152602001908152602001600020600082825403925050819055505b600073ffffffffffffffffffffffffffffffffffffffff168573ffffffffffffffffffffffffffffffffffffffff16146133eb576001600360008773ffffffffffffffffffffffffffffffffffffffff1673ffffffffffffffffffffffffffffffffffffffff168152602001908152602001600020600082825401925050819055505b846002600086815260200190815260200160002060006101000a81548173ffffffffffffffffffffffffffffffffffffffff021916908373ffffffffffffffffffffffffffffffffffffffff160217905550838573ffffffffffffffffffffffffffffffffffffffff168273ffffffffffffffffffffffffffffffffffffffff167fddf252ad1be2c89b69c2b068fc378daa952ba7f163c4a11628f55a4df523b3ef60405160405180910390a4809150509392505050565b6008805490506009600083815260200190815260200160002081905550600881908060018154018082558091505060019003906000526020600020016000909190919091505550565b60006134f783611684565b90506000600760008481526020019081526020016000205490508181146135dc576000600660008673ffffffffffffffffffffffffffffffffffffffff1673ffffffffffffffffffffffffffffffffffffffff168152602001908152602001600020600084815260200190815260200160002054905080600660008773ffffffffffffffffffffffffffffffffffffffff1673ffffffffffffffffffffffffffffffffffffffff168152602001908152602001600020600084815260200190815260200160002081905550816007600083815260200190815260200160002081905550505b6007600084815260200190815260200160002060009055600660008573ffffffffffffffffffffffffffffffffffffffff1673ffffffffffffffffffffffffffffffffffffffff16815260200190815260200160002060008381526020019081526020016000206000905550505050565b6000600160088054905061366191906153c1565b905060006009600084815260200190815260200160002054905060006008838154811061369157613690614ddc565b5b9060005260206000200154905080600883815481106136b3576136b2614ddc565b5b906000526020600020018190555081600960008381526020019081526020016000208190555060096000858152602001908152602001600020600090556008805480613702576137016153f5565b5b6001900381819060005260206000200160009055905550505050565b6000600161372b84611684565b61373591906153c1565b905081600660008573ffffffffffffffffffffffffffffffffffffffff1673ffffffffffffffffffffffffffffffffffffffff168152602001908152602001600020600083815260200190815260200160002081905550806007600084815260200190815260200160002081905550505050565b600080600090507a184f03e93ff9f4daa797ed6e38ed64bf6a1f0100000000000000008310613807577a184f03e93ff9f4daa797ed6e38ed64bf6a1f01000000000000000083816137fd576137fc615114565b5b0492506040810190505b6d04ee2d6d415b85acef81000000008310613844576d04ee2d6d415b85acef8100000000838161383a57613839615114565b5b0492506020810190505b662386f26fc10000831061387357662386f26fc10000838161386957613868615114565b5b0492506010810190505b6305f5e100831061389c576305f5e100838161389257613891615114565b5b0492506008810190505b61271083106138c15761271083816138b7576138b6615114565b5b0492506004810190505b606483106138e457606483816138da576138d9615114565b5b0492506002810190505b600a83106138f3576001810190505b80915050919050565b6139168282604051806020016040528060008152506139de565b5050565b6139258383836139fa565b6139d957600073ffffffffffffffffffffffffffffffffffffffff168373ffffffffffffffffffffffffffffffffffffffff160361399a57806040517f7e27328900000000000000000000000000000000000000000000000000000000815260040161399191906146fd565b60405180910390fd5b81816040517f177e802f0000000000000000000000000000000000000000000000000000000081526004016139d0929190614f25565b60405180910390fd5b505050565b6139e88383613abb565b6139f56000848484612ab1565b505050565b60008073ffffffffffffffffffffffffffffffffffffffff168373ffffffffffffffffffffffffffffffffffffffff1614158015613ab257508273ffffffffffffffffffffffffffffffffffffffff168473ffffffffffffffffffffffffffffffffffffffff161480613a735750613a7284846123f6565b5b80613ab157508273ffffffffffffffffffffffffffffffffffffffff16613a99836127ce565b73ffffffffffffffffffffffffffffffffffffffff16145b5b90509392505050565b600073ffffffffffffffffffffffffffffffffffffffff168273ffffffffffffffffffffffffffffffffffffffff1603613b2d5760006040517f64a0ae92000000000000000000000000000000000000000000000000000000008152600401613b249190614395565b60405180910390fd5b6000613b3b83836000612825565b9050600073ffffffffffffffffffffffffffffffffffffffff168173ffffffffffffffffffffffffffffffffffffffff1614613baf5760006040517f73c6ac6e000000000000000000000000000000000000000000000000000000008152600401613ba69190614395565b60405180910390fd5b505050565b6040518060800160405280600081526020016060815260200160608152602001606081525090565b6040518060a001604052806000815260200160008152602001606081526020016000815260200160006002811115613c1757613c16613f77565b5b81525090565b604051806040016040528060008152602001600081525090565b6040518060a001604052806000815260200160008152602001600073ffffffffffffffffffffffffffffffffffffffff16815260200160008152602001606081525090565b60405180606001604052806060815260200160608152602001600081525090565b604051806040016040528060608152602001606081525090565b6000604051905090565b600080fd5b600080fd5b6000819050919050565b613cde81613ccb565b8114613ce957600080fd5b50565b600081359050613cfb81613cd5565b92915050565b600060208284031215613d1757613d16613cc1565b5b6000613d2584828501613cec565b91505092915050565b613d3781613ccb565b82525050565b6000604082019050613d526000830185613d2e565b613d5f6020830184613d2e565b9392505050565b60007fffffffff0000000000000000000000000000000000000000000000000000000082169050919050565b613d9b81613d66565b8114613da657600080fd5b50565b600081359050613db881613d92565b92915050565b600060208284031215613dd457613dd3613cc1565b5b6000613de284828501613da9565b91505092915050565b60008115159050919050565b613e0081613deb565b82525050565b6000602082019050613e1b6000830184613df7565b92915050565b600073ffffffffffffffffffffffffffffffffffffffff82169050919050565b6000613e4c82613e21565b9050919050565b613e5c81613e41565b8114613e6757600080fd5b50565b600081359050613e7981613e53565b92915050565b600060208284031215613e9557613e94613cc1565b5b6000613ea384828501613e6a565b91505092915050565b613eb581613ccb565b82525050565b600081519050919050565b600082825260208201905092915050565b6000819050602082019050919050565b600081519050919050565b600082825260208201905092915050565b60005b83811015613f21578082015181840152602081019050613f06565b60008484015250505050565b6000601f19601f8301169050919050565b6000613f4982613ee7565b613f538185613ef2565b9350613f63818560208601613f03565b613f6c81613f2d565b840191505092915050565b7f4e487b7100000000000000000000000000000000000000000000000000000000600052602160045260246000fd5b60038110613fb757613fb6613f77565b5b50565b6000819050613fc882613fa6565b919050565b6000613fd882613fba565b9050919050565b613fe881613fcd565b82525050565b600060a0830160008301516140066000860182613eac565b5060208301516140196020860182613eac565b50604083015184820360408601526140318282613f3e565b91505060608301516140466060860182613eac565b5060808301516140596080860182613fdf565b508091505092915050565b60006140708383613fee565b905092915050565b6000602082019050919050565b600061409082613ebb565b61409a8185613ec6565b9350836020820285016140ac85613ed7565b8060005b858110156140e857848403895281516140c98582614064565b94506140d483614078565b925060208a019950506001810190506140b0565b50829750879550505050505092915050565b600081519050919050565b600082825260208201905092915050565b6000819050602082019050919050565b60408201600082015161413c6000850182613eac565b50602082015161414f6020850182613eac565b50505050565b60006141618383614126565b60408301905092915050565b6000602082019050919050565b6000614185826140fa565b61418f8185614105565b935061419a83614116565b8060005b838110156141cb5781516141b28882614155565b97506141bd8361416d565b92505060018101905061419e565b5085935050505092915050565b600081519050919050565b600082825260208201905092915050565b6000819050602082019050919050565b60006142108383613eac565b60208301905092915050565b6000602082019050919050565b6000614234826141d8565b61423e81856141e3565b9350614249836141f4565b8060005b8381101561427a5781516142618882614204565b975061426c8361421c565b92505060018101905061424d565b5085935050505092915050565b600060808301600083015161429f6000860182613eac565b50602083015184820360208601526142b78282614085565b915050604083015184820360408601526142d1828261417a565b915050606083015184820360608601526142eb8282614229565b9150508091505092915050565b600060208201905081810360008301526143128184614287565b905092915050565b600082825260208201905092915050565b600061433682613ee7565b614340818561431a565b9350614350818560208601613f03565b61435981613f2d565b840191505092915050565b6000602082019050818103600083015261437e818461432b565b905092915050565b61438f81613e41565b82525050565b60006020820190506143aa6000830184614386565b92915050565b600080604083850312156143c7576143c6613cc1565b5b60006143d585828601613e6a565b92505060206143e685828601613cec565b9150509250929050565b600081519050919050565b600082825260208201905092915050565b6000819050602082019050919050565b61442581613e41565b82525050565b600060a0830160008301516144436000860182613eac565b5060208301516144566020860182613eac565b506040830151614469604086018261441c565b50606083015161447c6060860182613eac565b50608083015184820360808601526144948282613f3e565b9150508091505092915050565b60006144ad838361442b565b905092915050565b6000602082019050919050565b60006144cd826143f0565b6144d781856143fb565b9350836020820285016144e98561440c565b8060005b85811015614525578484038952815161450685826144a1565b9450614511836144b5565b925060208a019950506001810190506144ed565b50829750879550505050505092915050565b6000602082019050818103600083015261455181846144c2565b905092915050565b600080fd5b600080fd5b7f4e487b7100000000000000000000000000000000000000000000000000000000600052604160045260246000fd5b61459b82613f2d565b810181811067ffffffffffffffff821117156145ba576145b9614563565b5b80604052505050565b60006145cd613cb7565b90506145d98282614592565b919050565b600067ffffffffffffffff8211156145f9576145f8614563565b5b61460282613f2d565b9050602081019050919050565b82818337600083830152505050565b600061463161462c846145de565b6145c3565b90508281526020810184848401111561464d5761464c61455e565b5b61465884828561460f565b509392505050565b600082601f83011261467557614674614559565b5b813561468584826020860161461e565b91505092915050565b6000806000606084860312156146a7576146a6613cc1565b5b60006146b586828701613cec565b935050602084013567ffffffffffffffff8111156146d6576146d5613cc6565b5b6146e286828701614660565b92505060406146f386828701613cec565b9150509250925092565b60006020820190506147126000830184613d2e565b92915050565b60008060006060848603121561473157614730613cc1565b5b600061473f86828701613e6a565b935050602061475086828701613e6a565b925050604061476186828701613cec565b9150509250925092565b6000806040838503121561478257614781613cc1565b5b600061479085828601613cec565b92505060206147a185828601613cec565b9150509250929050565b600082825260208201905092915050565b60006147c782613ebb565b6147d181856147ab565b9350836020820285016147e385613ed7565b8060005b8581101561481f57848403895281516148008582614064565b945061480b83614078565b925060208a019950506001810190506147e7565b50829750879550505050505092915050565b6000602082019050818103600083015261484b81846147bc565b905092915050565b6000806040838503121561486a57614869613cc1565b5b600061487885828601613cec565b925050602083013567ffffffffffffffff81111561489957614898613cc6565b5b6148a585828601614660565b9150509250929050565b600081519050919050565b600082825260208201905092915050565b6000819050602082019050919050565b60006148e7838361441c565b60208301905092915050565b6000602082019050919050565b600061490b826148af565b61491581856148ba565b9350614920836148cb565b8060005b8381101561495157815161493888826148db565b9750614943836148f3565b925050600181019050614924565b5085935050505092915050565b6000606083016000830151848203600086015261497b8282614900565b915050602083015184820360208601526149958282614229565b91505060408301516149aa6040860182613eac565b508091505092915050565b600060208201905081810360008301526149cf818461495e565b905092915050565b600082825260208201905092915050565b60006149f3826141d8565b6149fd81856149d7565b9350614a08836141f4565b8060005b83811015614a39578151614a208882614204565b9750614a2b8361421c565b925050600181019050614a0c565b5085935050505092915050565b60006020820190508181036000830152614a6081846149e8565b905092915050565b614a7181613deb565b8114614a7c57600080fd5b50565b600081359050614a8e81614a68565b92915050565b60008060408385031215614aab57614aaa613cc1565b5b6000614ab985828601613e6a565b9250506020614aca85828601614a7f565b9150509250929050565b600067ffffffffffffffff821115614aef57614aee614563565b5b614af882613f2d565b9050602081019050919050565b6000614b18614b1384614ad4565b6145c3565b905082815260208101848484011115614b3457614b3361455e565b5b614b3f84828561460f565b509392505050565b600082601f830112614b5c57614b5b614559565b5b8135614b6c848260208601614b05565b91505092915050565b60008060008060808587031215614b8f57614b8e613cc1565b5b6000614b9d87828801613e6a565b9450506020614bae87828801613e6a565b9350506040614bbf87828801613cec565b925050606085013567ffffffffffffffff811115614be057614bdf613cc6565b5b614bec87828801614b47565b91505092959194509250565b60008060008060808587031215614c1257614c11613cc1565b5b6000614c2087828801613e6a565b9450506020614c3187828801613cec565b935050604085013567ffffffffffffffff811115614c5257614c51613cc6565b5b614c5e87828801614660565b9250506060614c6f87828801613cec565b91505092959194509250565b60006040830160008301518482036000860152614c988282614900565b91505060208301518482036020860152614cb28282614229565b9150508091505092915050565b60006020820190508181036000830152614cd98184614c7b565b905092915050565b60008060408385031215614cf857614cf7613cc1565b5b6000614d0685828601613e6a565b9250506020614d1785828601613e6a565b9150509250929050565b614d2a81613fcd565b82525050565b6000608082019050614d456000830187613d2e565b8181036020830152614d57818661432b565b9050614d666040830185613d2e565b614d736060830184614d21565b95945050505050565b7f4e487b7100000000000000000000000000000000000000000000000000000000600052602260045260246000fd5b60006002820490506001821680614dc357607f821691505b602082108103614dd657614dd5614d7c565b5b50919050565b7f4e487b7100000000000000000000000000000000000000000000000000000000600052603260045260246000fd5b7f4e487b7100000000000000000000000000000000000000000000000000000000600052601160045260246000fd5b6000614e4582613ccb565b91507fffffffffffffffffffffffffffffffffffffffffffffffffffffffffffffffff8203614e7757614e76614e0b565b5b600182019050919050565b6000606082019050614e976000830186614386565b614ea46020830185613d2e565b614eb16040830184614386565b949350505050565b7f6f6e6c79206f776e65722063616e2073656c6c00000000000000000000000000600082015250565b6000614eef60138361431a565b9150614efa82614eb9565b602082019050919050565b60006020820190508181036000830152614f1e81614ee2565b9050919050565b6000604082019050614f3a6000830185614386565b614f476020830184613d2e565b9392505050565b600081905092915050565b6000614f6482613ee7565b614f6e8185614f4e565b9350614f7e818560208601613f03565b80840191505092915050565b6000614f968284614f59565b915081905092915050565b7f6f6e6c792061646d696e2063616e2064656c6973740000000000000000000000600082015250565b6000614fd760158361431a565b9150614fe282614fa1565b602082019050919050565b6000602082019050818103600083015261500681614fca565b9050919050565b60006150198285614f59565b91506150258284614f59565b91508190509392505050565b600081519050919050565b600082825260208201905092915050565b600061505882615031565b615062818561503c565b9350615072818560208601613f03565b61507b81613f2d565b840191505092915050565b600060808201905061509b6000830187614386565b6150a86020830186614386565b6150b56040830185613d2e565b81810360608301526150c7818461504d565b905095945050505050565b6000815190506150e181613d92565b92915050565b6000602082840312156150fd576150fc613cc1565b5b600061510b848285016150d2565b91505092915050565b7f4e487b7100000000000000000000000000000000000000000000000000000000600052601260045260246000fd5b60008190508160005260206000209050919050565b60006020601f8301049050919050565b600082821b905092915050565b6000600883026151a57fffffffffffffffffffffffffffffffffffffffffffffffffffffffffffffffff82615168565b6151af8683615168565b95508019841693508086168417925050509392505050565b6000819050919050565b60006151ec6151e76151e284613ccb565b6151c7565b613ccb565b9050919050565b6000819050919050565b615206836151d1565b61521a615212826151f3565b848454615175565b825550505050565b600090565b61522f615222565b61523a8184846151fd565b505050565b5b8181101561525e57615253600082615227565b600181019050615240565b5050565b601f8211156152a35761527481615143565b61527d84615158565b8101602085101561528c578190505b6152a061529885615158565b83018261523f565b50505b505050565b600082821c905092915050565b60006152c6600019846008026152a8565b1980831691505092915050565b60006152df83836152b5565b9150826002028217905092915050565b6152f882613ee7565b67ffffffffffffffff81111561531157615310614563565b5b61531b8254614dab565b615326828285615262565b600060209050601f8311600181146153595760008415615347578287015190505b61535185826152d3565b8655506153b9565b601f19841661536786615143565b60005b8281101561538f5784890151825560018201915060208501945060208101905061536a565b868310156153ac57848901516153a8601f8916826152b5565b8355505b6001600288020188555050505b505050505050565b60006153cc82613ccb565b91506153d783613ccb565b92508282039050818111156153ef576153ee614e0b565b5b92915050565b7f4e487b7100000000000000000000000000000000000000000000000000000000600052603160045260246000fdfea2646970667358221220b3adecdd1cd3ccaaf3ab565ec79f704d5114652e15f73ecbe2d05184520424d664736f6c63430008140033",
  "linkReferences": {},
  "deployedLinkReferences": {}
}